:020000040800F2
:1000000000000220E93A0008E9330008EB33000859
:10001000ED330008EF330008F13300080000000062
:10002000000000000000000000000000F3330008A2
:10003000F533000800000000F7330008F93300082A
:10004000393B0008393B0008393B0008393B0008C0
:10005000393B0008393B0008393B0008393B0008B0
:10006000393B0008393B0008393B0008393B0008A0
:1000700001340008393B0008393B0008393B0008CF
:10008000393B0008393B0008393B0008393B000880
:1000900011340008393B0008393B0008393B00089F
:1000A000393B0008393B0008393B0008393B000860
:1000B0002134000835340008393B0008393B00087A
:1000C000393B0008393B0008393B0008393B000840
:1000D000393B0008393B0008393B00084D34000823
:1000E000393B0008393B0008393B0008393B000820
:1000F000393B0008393B0008393B0008393B000810
:10010000393B0008393B000861340008393B0008DE
:10011000393B0008393B0008393B000875340008BA
:10012000393B000889340008393B0008393B000896
:10013000393B0008393B0008393B0008393B0008CF
:10014000393B000899340008393B0008393B000866
:10015000393B0008393B0008393B0008A934000846
:10016000393B0008393B0008393B0008393B00089F
:10017000393B0008393B0008393B0008000000000B
:08018000393B0008393B00087F
:1001880010B5054C237833B9044B13B10448AFF3C9
:1001980000800123237010BDBC0400200000000073
:1001A8006C7E000808B5034B1BB103490348AFF345
:1001B800008008BD00000000C00400206C7E00081C
:1001C80081F0004102E000BF83F0004330B54FEA00
:1001D80041044FEA430594EA050F08BF90EA020F6D
:1001E8001FBF54EA000C55EA020C7FEA645C7FEA00
:1001F800655C00F0E2804FEA5454D4EB5555B8BF23
:100208006D420CDD2C4480EA020281EA030382EA93
:10021800000083EA010180EA020281EA0303362D25
:1002280088BF30BD11F0004F4FEA01314FF4801CF8
:100238004CEA113102D0404261EB410113F0004F0A
:100248004FEA03334CEA133302D0524263EB4303C1
:1002580094EA050F00F0A780A4F10104D5F1200E5F
:100268000DDB02FA0EFC22FA05F2801841F10001BA
:1002780003FA0EF2801843FA05F359410EE0A5F18E
:1002880020050EF1200E012A03FA0EFC28BF4CF0BF
:10029800020C43FA05F3C01851EBE37101F0004575
:1002A80007D54FF0000EDCF1000C7EEB00006EEB82
:1002B8000101B1F5801F1BD3B1F5001F0CD349080C
:1002C8005FEA30004FEA3C0C04F101044FEA445263
:1002D80012F5800F80F09A80BCF1004F08BF5FEAEA
:1002E800500C50F1000041EB045141EA050130BDCA
:1002F8005FEA4C0C404141EB0101013C28BFB1F5DC
:10030800801FE9D291F0000F04BF01460020B1FA26
:1003180081F308BF2033A3F10B03B3F120020CDAF9
:100328000C3208DD02F1140CC2F10C0201FA0CF0D7
:1003380021FA02F10CE002F11402D8BFC2F1200C3C
:1003480001FA02F120FA0CFCDCBF41EA0C019040F2
:10035800E41AA2BF01EB0451294330BD6FEA04043B
:100368001F3C1CDA0C340EDC04F11404C4F1200226
:1003780020FA04F001FA02F340EA030021FA04F338
:1003880045EA030130BDC4F10C04C4F1200220FA8F
:1003980002F001FA04F340EA0300294630BD21FACD
:1003A80004F0294630BD94F0000F83F4801306BF93
:1003B80081F480110134013D4EE77FEA645C18BF87
:1003C8007FEA655C29D094EA050F08BF90EA020F1E
:1003D80005D054EA000C04BF1946104630BD91EA16
:1003E800030F1EBF0021002030BD5FEA545C05D119
:1003F8004000494128BF41F0004130BD14F5800458
:100408003CBF01F5801130BD01F0004545F0FE41CB
:1004180041F470014FF0000030BD7FEA645C1ABF00
:10042800194610467FEA655C1CBF0B46024650EA37
:10043800013406BF52EA033591EA030F41F4002163
:1004480030BD00BF90F0000F04BF0021704730B5E9
:100458004FF4806404F132044FF000054FF00001BE
:1004680050E700BF90F0000F04BF0021704730B57F
:100478004FF4806404F1320410F0004548BF404254
:100488004FF000013EE700BF42004FEAE2014FEAA9
:1004980031014FEA02701FBF12F07F4393F07F4F84
:1004A80081F06051704732F07F4208BF704793F087
:1004B8007F4F04BF41F40021704730B54FF460749A
:1004C80001F0004521F000411CE700BF50EA01029D
:1004D80008BF704730B54FF000050AE050EA010246
:1004E80008BF704730B511F0004502D5404261EBB6
:1004F80041014FF4806404F132045FEA915C3FF4F7
:10050800D8AE4FF003025FEADC0C18BF03325FEA93
:10051800DC0C18BF033202EBDC02C2F1200300FA44
:1005280003FC20FA02F001FA03FE40EA0E0021FA69
:1005380002F11444BDE600BF4FF0FF3C06E000BFE7
:100548004FF0010C02E000BF4FF0010C4DF804CD54
:100558004FEA410C7FEA6C5C4FEA430C18BF7FEA14
:100568006C5C1BD001B050EA410C0CBF52EA430C42
:1005780091EA030F02BF90EA020F0020704710F1C2
:10058800000F91EA030F58BF994208BF90422CBF51
:10059800D8176FEAE37040F0010070474FEA410C4A
:1005A8007FEA6C5C02D150EA013C07D14FEA430C68
:1005B8007FEA6C5CD6D152EA033CD3D05DF8040BD9
:1005C800704700BF8446104662468C46194663460B
:1005D80000E000BF01B5FFF7B7FF002848BF10F1E2
:1005E800000F01BD4DF808EDFFF7F4FF0CBF012027
:1005F80000205DF808FB00BF4DF808EDFFF7EAFFA3
:1006080034BF012000205DF808FB00BF4DF808ED5D
:10061800FFF7E0FF94BF012000205DF808FB00BF52
:100628004DF808EDFFF7CEFF94BF012000205DF8DC
:1006380008FB00BF4DF808EDFFF7C4FF34BF0120E9
:1006480000205DF808FB00BF4FEA4102B2F1E04329
:1006580024BFB3F5001CDCF1FE5C0DD901F0004CA1
:100668004FEAC0024CEA5070B2F1004F40EB8300F1
:1006780008BF20F00100704711F0804F21D113F11D
:100688003872BCBF01F00040704741F480114FEA56
:100698005252C2F11802C2F1200C10FA0CF320FADF
:1006A80002F018BF40F001004FEAC1234FEAD323FC
:1006B80003FA0CFC40EA0C0023FA02F34FEA430366
:1006C800CCE77FEA625307D150EA01331EBF4FF0EF
:1006D800FE4040F44000704701F0004040F0FE400A
:1006E80040F40000704700BF80F0004002E000BF07
:1006F80081F0004142001FBF5FEA410392EA030F05
:100708007FEA226C7FEA236C6AD04FEA1262D2EB4E
:100718001363C1BFD218414048404140B8BF5B4253
:10072800192B88BF704710F0004F40F4000020F0EC
:100738007F4018BF404211F0004F41F4000121F002
:100748007F4118BF494292EA030F3FD0A2F101024C
:1007580041FA03FC10EB0C00C3F1200301FA03F18A
:1007680000F0004302D5494260EB4000B0F5000FAD
:1007780013D3B0F1807F06D340084FEA310102F16C
:100788000102FE2A51D2B1F1004F40EBC25008BF1E
:1007980020F0010040EA03007047490040EB0000E8
:1007A800013A28BFB0F5000FEDD2B0FA80FCACF1E9
:1007B800080CB2EB0C0200FA0CF0AABF00EBC25016
:1007C80052421843BCBFD0401843704792F0000F04
:1007D80081F4000106BF80F400000132013BB5E757
:1007E8004FEA41037FEA226C18BF7FEA236C21D0CD
:1007F80092EA030F04D092F0000F08BF0846704732
:1008080090EA010F1CBF0020704712F07F4F04D1FF
:10081800400028BF40F00040704712F100723CBF12
:1008280000F50000704700F0004343F0FE4040F43C
:10083800000070477FEA226216BF08467FEA2363FA
:100848000146420206BF5FEA412390EA010F40F4E5
:10085800800070474FF0000304E000BF10F0004331
:1008680048BF40425FEA000C08BF704743F0964318
:1008780001464FF000001CE050EA010208BF704733
:100888004FF000030AE000BF50EA010208BF7047BA
:1008980011F0004302D5404261EB41015FEA010CCF
:1008A80002BF84460146002043F0B64308BFA3F1C7
:1008B8008053A3F50003BCFA8CF2083AA3EBC253A9
:1008C80010DB01FA02FC634400FA02FCC2F12002C8
:1008D800BCF1004F20FA02F243EB020008BF20F0FF
:1008E8000100704702F1200201FA02FCC2F1200265
:1008F80050EA4C0021FA02F243EB020008BF20EA5A
:10090800DC7070474FF0FF0C1CEAD0521EBF1CEA87
:10091800D15392EA0C0F93EA0C0F6FD01A4480EA75
:10092800010C400218BF5FEA41211ED04FF000635E
:1009380043EA501043EA5111A0FB01310CF000408A
:10094800B1F5000F3EBF490041EAD3715B0040EAB0
:10095800010062F17F02FD2A1DD8B3F1004F40EB80
:10096800C25008BF20F00100704790F0000F0CF053
:10097800004C08BF49024CEA502040EA51207F3A17
:10098800C2BFD2F1FF0340EAC250704740F40000F2
:100998004FF00003013A5DDC12F1190FDCBF00F0E3
:1009A80000407047C2F10002410021FA02F1C2F191
:1009B800200200FA02FC5FEA310040F1000053EA2D
:1009C8004C0308BF20EADC70704792F0000F00F07B
:1009D800004C02BF400010F4000F013AF9D040EA81
:1009E8000C0093F0000F01F0004C02BF490011F415
:1009F800000F013BF9D041EA0C018FE70CEAD15313
:100A080092EA0C0F18BF93EA0C0F0AD030F0004C92
:100A180018BF31F0004CD8D180EA010000F0004046
:100A2800704790F0000F17BF90F0004F084691F004
:100A3800000F91F0004F14D092EA0C0F01D142023E
:100A48000FD193EA0C0F03D14B0218BF084608D107
:100A580080EA010000F0004040F0FE4040F4000051
:100A6800704740F0FE4040F4400070474FF0FF0CE4
:100A78001CEAD0521EBF1CEAD15392EA0C0F93EA2B
:100A88000C0F69D0A2EB030280EA010C49024FEA7D
:100A9800402037D04FF0805343EA111143EA101336
:100AA8000CF000408B4238BF5B0042F17D024FF4EE
:100AB800000C8B4224BF5B1A40EA0C00B3EB510FC9
:100AC80024BFA3EB510340EA5C00B3EB910F24BFB2
:100AD800A3EB910340EA9C00B3EBD10F24BFA3EB37
:100AE800D10340EADC001B0118BF5FEA1C1CE0D1FF
:100AF800FD2A3FF650AF8B4240EBC25008BF20F0B2
:100B0800010070470CF0004C4CEA50207F32C2BF05
:100B1800D2F1FF0340EAC250704740F400004FF0A2
:100B28000003013A37E792F0000F00F0004C02BFD3
:100B3800400010F4000F013AF9D040EA0C0093F09D
:100B4800000F01F0004C02BF490011F4000F013BF7
:100B5800F9D041EA0C0195E70CEAD15392EA0C0F5F
:100B680008D142027FF47DAF93EA0C0F7FF470AF97
:100B7800084676E793EA0C0F04D14B023FF44CAFDA
:100B880008466EE730F0004C18BF31F0004CCAD16F
:100B980030F000427FF45CAF31F000437FF43CAFAB
:100BA8005FE700BF4FF0FF3C06E000BF4FF0010CCD
:100BB80002E000BF4FF0010C4DF804CD4FEA4002AF
:100BC8004FEA41037FEA226C18BF7FEA236C11D0F9
:100BD80001B052EA530C18BF90EA010F58BFB2EBAC
:100BE800030088BFC81738BF6FEAE17018BF40F02C
:100BF800010070477FEA226C02D15FEA402C05D1E0
:100C08007FEA236CE4D15FEA412CE1D05DF8040B64
:100C1800704700BF844608466146FFE70FB5FFF7F7
:100C2800C9FF002848BF10F1000F0FBD4DF808EDAF
:100C3800FFF7F4FF0CBF012000205DF808FB00BFA0
:100C48004DF808EDFFF7EAFF34BF012000205DF8FA
:100C580008FB00BF4DF808EDFFF7E0FF94BF012047
:100C680000205DF808FB00BF4DF808EDFFF7D2FF44
:100C780094BF012000205DF808FB00BF4DF808ED87
:100C8800FFF7C8FF34BF012000205DF808FB00BF54
:100C98004FEA4002B2F1FE4F0FD34FF09E03B3EB81
:100CA80012620DD94FEA002343F0004310F0004FC1
:100CB80023FA02F018BF404270474FF00000704717
:100CC80012F1610F01D1420205D110F0004008BFB6
:100CD8006FF0004070474FF00000704753B94AB9B1
:100CE800002908BF00281CBF4FF0FF314FF0FF302C
:100CF80000F074B9ADF1080C6DE904CE00F006F807
:100D0800DDF804E0DDE9022304B070472DE9F0477F
:100D1800089E0D4604468846002B4DD18A429446CB
:100D280068D9B2FA82F252B101FA02F3C2F1200193
:100D380020FA01F10CFA02FC41EA030894404FEA58
:100D48001C45210CB8FBF5FE1FFA8CF705FB1E832A
:100D580041EA03430EFB07F199420BD91CEB03034D
:100D68000EF1FF3080F01E81994240F21B81AEF1F6
:100D7800020E63445B1AA4B2B3FBF5F005FB103313
:100D880044EA034400FB07F7A7420AD91CEB040412
:100D980000F1FF3380F00881A74240F205816444E6
:100DA8000238E41B40EA0E4000211EB1D440002363
:100DB800C6E90043BDE8F0878B4208D9002E00F051
:100DC800EE800021C6E900050846BDE8F087B3FAC1
:100DD80083F100294AD1AB4202D3824200F2F98062
:100DE800841A65EB030301209846002EE2D0C6E979
:100DF8000048DFE702B9FFDEB2FA82F2002A40F0CB
:100E08009180A1EB0C054FEA1C471FFA8CFE0121CB
:100E1800B5FBF7F307FB1350250C45EA00450EFB1D
:100E280003F0A84208D91CEB050503F1FF3802D2EC
:100E3800A84200F2CB8043462D1AA4B2B5FBF7F0C6
:100E480007FB105544EA05440EFB00FEA64508D9E9
:100E58001CEB040400F1FF3502D2A64500F2BB806A
:100E68002846A4EB0E0440EA03409EE7C1F12007A0
:100E78008B4022FA07FC4CEA030C20FA07F405FA27
:100E880001F31C43FD404FEA1C4900FA01F3B5FB8E
:100E9800F9F8200C1FFA8CFE09FB185540EA0545A5
:100EA80008FB0EF0A84202FA01F20BD91CEB05056B
:100EB80008F1FF3A80F08880A84240F28580A8F1C6
:100EC800020865442D1AA4B2B5FBF9F009FB1055C8
:100ED80044EA054500FB0EFEAE4508D91CEB0505A6
:100EE80000F1FF346CD2AE456AD90238654440EA55
:100EF8000840A0FB0294A5EB0E05A542C846A646ED
:100F080056D353D05EB1B3EB080265EB0E0505FA74
:100F180007F722FA01F3CD401F43C6E90075002107
:100F2800BDE8F087C2F1200320FA03F10CFA02FCB5
:100F380025FA03F395400D434FEA1C471FFA8CFE30
:100F4800B3FBF7F107FB11302B0C43EA004301FB1D
:100F58000EF0984204FA02F408D91CEB030301F1DD
:100F6800FF382FD298422DD9023963441B1AADB2EB
:100F7800B3FBF7F007FB103345EA034500FB0EF31C
:100F8800AB4208D91CEB050500F1FF3816D2AB427D
:100F980014D902386544ED1A40EA014138E7314670
:100FA800304607E78646E5E61846FAE64B45A9D2F5
:100FB800B9EB020864EB0C0E0138A3E74046EAE7F8
:100FC800204694E74146D1E7D0467BE7023B65449B
:100FD80032E7084609E76444023842E7704700BF31
:100FE8004FEA40024FEA41037FEA226C02D15FEAEE
:100FF800402C08D17FEA236C02D15FEA412C02D150
:101008004FF0000070474FF00100704700000000EB
:1010180038B5FFF76DFB04460021FFF707FE0028EF
:101028003ED0374B1C6800212046FFF727FE58B1F9
:101038002046FFF729FA2CA3D3E90023FFF7C4F8C9
:10104800FFF702FB2E4B18602D4B1C680021204631
:10105800FFF7F6FDB8B92A4B1868FFF715FA0446EA
:101068000D4623A3D3E90023FFF7E4FA10B322A324
:10107800D3E9002320462946FFF7BEFAD0B1204B1A
:1010880000221A6016E02046FFF7FEF916A3D3E9FE
:101098000023FFF79BF8FFF7D7FA194B1860DAE738
:1010A80018492046FFF7E2FC0146154C2068FFF777
:1010B80021FB20604FF07E51114B1868FFF7DEFDD1
:1010C80018B10F4B4FF07E521A600F490C4B18683D
:1010D800FFF7B6FD10B90A4B186838BD084B0A4A25
:1010E8001A60F8E7AFF30080FA7E6ABC7493683F31
:1010F8007B14AE47E17A74BF7B14AE47E17A743F44
:10110800E804002000007A44000080BF00000000CE
:1011180038B5FFF7EDFA04460021FFF787FD0028F0
:101128003ED0374B1C6800212046FFF7A7FD58B179
:101138002046FFF7A9F92CA3D3E90023FFF744F8C9
:10114800FFF782FA2E4B18602D4B1C6800212046B1
:10115800FFF776FDB8B92A4B1868FFF795F90446EA
:101168000D4623A3D3E90023FFF764FA10B322A3A3
:10117800D3E9002320462946FFF73EFAD0B1204B99
:1011880000221A6016E02046FFF77EF916A3D3E97D
:101198000023FFF71BF8FFF757FA194B1860DAE737
:1011A80018492046FFF762FC0146154C2068FFF7F6
:1011B800A1FA20604FF07E51114B1868FFF75EFDD1
:1011C80018B10F4B4FF07E521A600F490C4B18683C
:1011D800FFF736FD10B90A4B186838BD084B0A4AA4
:1011E8001A60F8E7AFF30080FA7E6ABC7493683F30
:1011F8007B14AE47E17A74BF7B14AE47E17A743F43
:10120800E404002000007A44000080BF2DE9F0418A
:1012180086B09E4B1B7E012B58D0032B63D0022B2C
:1012280000F0A9809A4B1968FFF76CFB0546994BAB
:101238001C6831462046FFF765FB064639462046BE
:10124800FFF760FB044631462846FFF753FA074686
:101258002146FFF74FFA8046029021463846FFF7AD
:1012680047FA0746039031462846FFF741FA0546F4
:101278002146FFF73DFA0646049021462846FFF727
:1012880039FA04460590844D2A684146002001F049
:10129800BDF9ADF800006A683946012001F0B6F9D9
:1012A800ADF80200AA683146022001F0AFF9ADF8A6
:1012B8000400EA682146032001F0A8F9ADF8060009
:1012C800684601F027F806B0BDE8F0810023ADF8C4
:1012D8000030ADF80230ADF80430ADF8063068469D
:1012E80001F018F8EFE7694B5B7E012B2ED0032B3A
:1012F80032D0022B96D1654B5E681D683146304668
:10130800FFF700FB044629462846FFF7FBFA01468B
:101318002046FFF7EFF905F07FFB044631462846E3
:1013280005F078FB5D4B1968FFF7E2F9054605F013
:10133800E7FA2146FFF7E6FA0646284605F012FBCB
:101348002146FFF7DFFA074655486BE70026554B5D
:101358001E603046374665E74C4B5E681F684F4B4A
:10136800186801F0A5F95049FFF7CCFA484B1968FD
:10137800FFF77CFB56E7454B93F8233013F0200F1B
:1013880033D04A4B01221A60484B1B68002B33D0DC
:101398003E4D95F82200C0F3C006C0F38000FFF769
:1013A80059FA04463046FFF755FA2146FFF7B0FED2
:1013B800064695F8220000F00105C0F34000FFF74B
:1013C80049FA04462846FFF745FA2146FFF720FE6A
:1013D8000746324B186801F06BF93349FFF792FA68
:1013E8002B4B1968FFF742FB1CE713F0100FCBD00B
:1013F8002E4B00221A60C7E7244E96F82200C0F34D
:10140800C005C0F38000FFF725FA04462846FFF719
:1014180021FA2146FFF77CFE054696F8220000F0E7
:101428000106C0F34000FFF715FA04463046FFF7FF
:1014380011FA2146FFF7ECFD044629462846FFF736
:1014480061FA064621462046FFF75CFA0146304617
:10145800FFF750F905F0E0FA07462946204605F05F
:10146800D9FA0E4B1968FFF743F9044605F048FA14
:101478003946FFF747FA0646204605F073FA39461B
:10148800FFF740FA07464FF04040CBE6D40500206E
:10149800040000200800002038050020480500202E
:1014A800335407C0DC0400200000BE420C000020BA
:1014B80010B50E4B188801F0EDFB0D4C208000F0A4
:1014C80099FF2088FFF7CAF90A49FFF71BFA044673
:1014D8000949FFF7CBFA094B18604FF07A512046BB
:1014E800FFF710FA064B186010BD00BF1406002065
:1014F8000000002000009841000040400800002043
:101508000400002008B5FFF7A9F90146044B18604C
:10151800FFF7F0F84FF07C51FFF7F4F908BD00BF72
:10152800E004002038B53C4B1B7E012B0FD0032B69
:1015380011D0022B4FD03949394B1B680A684968CA
:101548003848006801F022F900F02AFF38BD002071
:1015580000F026FFFAE7334B1D68304B5C682146E4
:101568002846FFF7C5F83049FFF788FB28B12F490F
:101578002846FFF7BDF82B4B18602A4B1D682146FB
:101588002846FFF7B5F82A49FFF75AFB28B127493B
:101598002846FFF7AFF8234B1860224B1D682146F9
:1015A8002846FFF7A5F804462249FFF767FB0028FD
:1015B800C1D021492046FFF743FB0028BBD01F4973
:1015C800154BD868FFF79EF901462846FFF792F8B1
:1015D800144B1860AFE7114B5968124B1868FFF7A6
:1015E80087F804461349FFF749FB0028A3D012499E
:1015F8002046FFF725FB00289DD0074BB3F91A00BA
:10160800FFF780FF0E49FFF77DF90146054C20687A
:10161800FFF770F820608EE7D40500200005002051
:10162800DC040020D8040020DB0F4940DB0FC94050
:10163800DB0F49C0DB0FC9BFDB0FC93F2EE3CDBBB2
:10164800FF962BB908B5FFF709F90146044B186056
:10165800FFF750F84FF07C51FFF754F908BD00BF71
:10166800EC04002070B5684B1B7E012B04D0032BC3
:1016780018D0022B72D070BD0024644B1C80644EBD
:10168800306800F10040FFF703FB05B2706800F115
:101698000040FFF7FDFA03B22A462146204600F033
:1016A800FBFDE8E75B49584B9868FFF72BF95A4C64
:1016B8002168FFF71FF820605849FFF7C1FA08B101
:1016C800564A22605649544B1868FFF7D7FA10B1AA
:1016D800514B534A1A60534B9C68D9684E4B186853
:1016E800FFF706F8214601F0E1F80446464BB3F946
:1016F8002400FFF7B3F84FF08941FEF7F9FF4A4B92
:101708001968FFF7FFF806464849FFF799FA00B14C
:10171800464E474B19683046FEF7EAFF01F020F9BC
:10172800054600213046FFF781FA10B9374B0122F0
:101738001A80364B1B88C3EBC30203EB8202C2EB51
:1017480042129201C3EB431103EB81039B011BB2CD
:1017580012B22946204600F09FFD8CE72A4BB3F9C8
:101768001C00FFF76FFF3349FFF7CCF82A4C2168BC
:10177800FEF7C0FF20602949FFF762FA08B1274A3F
:1017880022602749244B1868FFF778FA10B1224BDA
:10179800234A1A60234B9C68D9681F4B1868FEF7C8
:1017A800A7FF214601F082F80446174B93F8200062
:1017B800FFF754F8204B1968FFF7A4F806461C4BAE
:1017C8001968FEF795FF01F0CBF805460021304671
:1017D800FFF72CFA10B90D4B01221A800B4B1B880E
:1017E800C3EBC30203EB8202C2EB42129201C3EBCA
:1017F800431103EB81039B011BB212B22946204619
:1018080000F04AFD37E700BFD4050020F4040020AB
:10181800580500200AD7A33BF0040020EFB6B0BE5D
:101828007C59C43E00050020140000200000C8C2F6
:101838004C0500208E22B73810000020F0B585B086
:1018480004460D46134E00220121304603F078F974
:1018580004F07F048DF80E400F4C372700970123C2
:101868000DF10F020DF10E01204603F0CCFD8DF8AD
:101878000E50009701230DF10F020DF10E012046C5
:1018880003F0C1FD01221146304603F059F905B0B5
:10189800F0BD00BF00040240840A002070B584B087
:1018A8000446134D00220121284603F049F964F04B
:1018B8007F048DF80E400F4C3726009601230DF15A
:1018C8000F020DF10E01204603F09DFD0096012345
:1018D8000DF10F020DF10E01204603F094FD0122D7
:1018E8001146284603F02CF99DF80F0004B070BD8E
:1018F80000040240840A002030B585B00546002265
:101908000121144803F01CF982238DF80E30372387
:10191800009301230DF10F020DF10E010E4803F0A3
:1019280072FD06240CE0C4F106023723009301235C
:101938002A440DF10E01084803F065FD013CE4B2AC
:10194800002CF0D101221146024803F0F9F805B045
:1019580030BD00BF00040240840A0020F0B585B005
:1019680004460D46134E00221021304603F0E8F8D5
:1019780004F07F048DF80E400F4C372700970123A1
:101988000DF10F020DF10E01204603F03CFD8DF81C
:101998000E50009701230DF10F020DF10E012046A4
:1019A80003F031FD01221021304603F0C9F805B0DB
:1019B800F0BD00BF00000240840A002070B584B06A
:1019C8000446194E00221021304603F0B9F864F09D
:1019D8007F048DF80E40154C3725009501230DF135
:1019E8000F020DF10E01204603F00DFD55238DF871
:1019F8000E30009501230DF10F020DF10E01204666
:101A080003F001FD009501230DF10F020DF10E0108
:101A1800204603F0F8FC01221021304603F090F82C
:101A28009DF80F0004B070BD00000240840A002039
:101A380070B584B0054600221021194803F080F8DB
:101A480092238DF80E30174C3726009601230DF19E
:101A58000F020DF10E01204603F0D5FC009601237C
:101A68000DF10F020DF10E01204603F0CCFC062407
:101A78000CE0C4F106023723009301232A440DF138
:101A88000E01084803F0BFFC013CE4B2002CF0D181
:101A980001221021024803F053F804B070BD00BFC2
:101AA80000000240840A002010B584B002A8FFF7A5
:101AB80023FF9DF809309DF8080040EA032000B292
:101AC800FEF7CCFE2E49FEF7D1FF2E49FEF71AFF8E
:101AD8002D4CE0609DF80B309DF80A0040EA032089
:101AE80000B2FEF7BBFE2649FEF7C0FF2549FEF708
:101AF80009FF20619DF80D309DF80C0040EA032095
:101B080000B2FEF7ABFE1E49FEF7B0FF1F49FEF715
:101B1800EFFD1C49FEF7F6FE60616846FFF788FF97
:101B28009DF801309DF8000040EA032000B2FEF75E
:101B380095FE1749FEF79AFF1649FEF7DBFD206070
:101B48009DF803309DF8020040EA032000B2FEF73A
:101B580085FE0F49FEF78AFF0F49FEF7C9FD606051
:101B68009DF805309DF8040040EA032000B2FEF716
:101B780075FE0749FEF77AFFA06004B010BD00BFEC
:101B88006F12034235FA8E3C10050020E17A943E2C
:101B9800ABAA2A46FA27383C9626253A10B44FF0C5
:101BA800E0235C694FF0A80C0CFB00FC9B6900214A
:101BB80004E0E01A02441144614509D21A464FF084
:101BC800E0239B699A42FAD0F3D9D21A1144F3E779
:101BD80010BC7047F0B585B0224A01AB07CA03C3F1
:101BE8001A70B6211420FFF729FE642001F0F4FFD3
:101BF8000020FFF753FE1C4C20709620FFF7CEFF05
:101C080023780F2B2BD10024022C25D804EB440376
:101C180010336B4413F80C6C13F80B5C29463046F0
:101C2800FFF70CFE9620FFF7B9FF3046FFF736FEA8
:101C38000D4E30709620FFF7B1FF33789D4202D1E8
:101C48000134E4B2E0E704EB440707F110030DEBBD
:101C5800030717F80A0C00E0002005B0F0BDFF20CC
:101C6800FBE700BF847E000835050020F0B585B08D
:101C7800264B93E8070004AB03E90700B6217E2052
:101C8800FFF76CFE642001F0A7FF00217C20FFF71E
:101C980065FE9620FFF782FF0020FFF78FFE1C4CA1
:101CA80020709620FFF77AFF23781E2B2BD1002473
:101CB800032C25D804EB440310336B4413F80C6C45
:101CC80013F80B5C29463046FFF748FE9620FFF7CD
:101CD80065FF3046FFF772FE0D4E30709620FFF715
:101CE8005DFF33789D4202D10134E4B2E0E704EBB2
:101CF800440707F110030DEB030717F80A0C00E07F
:101D0800002005B0F0BDFF20FBE700BF907E000873
:101D18003405002010B5FFF75DFF0446FFF7A6FF66
:101D2800204310F0FF0404D1054803F04BFD204682
:101D380010BD01224FF48051024802F001FFF6E77E
:101D4800B40B0020001C024010B504464FF07C5133
:101D5800FEF7D8FD01462346094CA4EB6304204650
:101D6800FEF7D0FD01462046FEF7CCFD01464FF0B8
:101D78007F50FEF7BDFC01462046FEF7C3FD10BDAF
:101D8800DF59375F2DE9F04F85B004460E461546FA
:101D98000093DDF838A0DDF83C90DDF840800021A4
:101DA8005046FEF743FF58B100214846FEF73EFF74
:101DB80030B100214046FEF739FF002840F0AC80E2
:101DC80051465046FEF79EFD074649464846FEF7EF
:101DD80099FD01463846FEF78DFC074641464046C8
:101DE800FEF790FD01463846FEF784FCFFF7ACFF8E
:101DF800074601465046FEF785FD0190394648469C
:101E0800FEF780FD029039464046FEF77BFD0390C1
:101E1800D4F80480D4F80C9049464046FEF772FD89
:101E28000746D4F800A0D4F808B059465046FEF743
:101E380069FD01463846FEF75BFC074651464046B9
:101E4800FEF760FD804659464846FEF75BFD0146B1
:101E58004046FEF74FFC804651465046FEF752FD7D
:101E68004FF07C51FEF744FC824649464846FEF74F
:101E780049FD01465046FEF73DFC81460146029861
:101E8800FEF740FD82464146DDF80CB05846FEF7A5
:101E980039FD01465046FEF72BFC82463946584626
:101EA800FEF730FD834649460198FEF72BFD0146B3
:101EB8005846FEF71DFC814641460198FEF722FD73
:101EC800804639460298FEF71DFD01464046FEF75A
:101ED8000FFC07460023724A1360724A1360724A65
:101EE800136072495046FEF70DFD01463046FEF775
:101EF80001FC06466D494846FEF704FD01462846A2
:101F0800FEF7F8FB054669493846FEF7FBFC014633
:101F18000098FEF7EFFB009065493046FEF7F2FCAB
:101F2800804663492846FEF7EDFC0646604900985E
:101F3800FEF7E8FC0746D4F800B0D4F804A0D4F8BB
:101F480008900AF10040CDF800804146FEF7DAFC1F
:101F5800054649463046FEF7D5FC01462846FEF7B9
:101F6800C7FB0546D4F80C8039464046FEF7CAFC44
:101F780001462846FEF7BCFB5946FEF7BBFB01901D
:101F8800206059460098FEF7BDFC0546494638468C
:101F9800FEF7B8FC01462846FEF7ACFB054631467D
:101FA8004046FEF7AFFC01462846FEF7A1FB514626
:101FB800FEF7A0FB0290606059463046FEF7A2FC8F
:101FC800054651463846FEF79DFC01462846FEF771
:101FD8008FFB054600994046FEF794FC01462846CB
:101FE800FEF788FB4946FEF785FB0546A060594683
:101FF8003846FEF787FC074651463046FEF782FC16
:1020080001463846FEF776FB064649460098FEF735
:1020180079FC01463046FEF76BFB01464046FEF769
:1020280069FB0646E060DDF8048041464046FEF75D
:1020380069FC0746DDF8089049464846FEF762FC09
:1020480001463846FEF756FB074629462846FEF75E
:1020580059FC01463846FEF74DFB074631463046E7
:10206800FEF750FC01463846FEF744FBFFF76CFECE
:10207800074601464046FEF745FC2060394648467B
:10208800FEF740FC606039462846FEF73BFCA0603E
:1020980039463046FEF736FCE06005B0BDE8F08F03
:1020A800280500202C050020300500209A99193FAA
:1020B8006F12033AF0B585B0FFF7F6FC43490A6999
:1020C8004B6948688D6803F1004302F10042404CB7
:1020D80005F10045029500F1004001900868009064
:1020E800C9682046FFF74EFE2668E1683046FEF7CD
:1020F80009FC05466768A1683846FEF703FC0146F7
:102108002846FEF7F7FA054631463046FEF7FAFB51
:10211800064639463846FEF7F5FB01463046FEF7D7
:10212800E9FA0146FEF7E6FA4FF07E51FEF7E0FACB
:10213800064629462846FEF7DDFA314604F06AFCD1
:102148000546E1686068FEF7DDFB0646A168206881
:10215800FEF7D8FB01463046FEF7CAFA4FF0404179
:10216800FEF7D0FB04F036FC1A4BD8601A4B1968FE
:102178002846FEF7BDFA04461849FEF761FD18B176
:10218800174A13680133136016492046FEF776FD97
:1021980018B1134A1368013B13600F4B1D60104BB5
:1021A8001868FEF75BFB1049FEF7ACFB2946FEF703
:1021B800A1FA084B586005490A6902F100429A6081
:1021C8004A6902F100421A6005B0F0BD100500200E
:1021D8001800002000050020FC040020DB0F49C087
:1021E800F8040020DB0F4940DB0FC94030B58BB045
:1021F80000230493012207920593069309930892FA
:10220800009301930293039369461D4801F09EFDD4
:1022180020BB012304930E230593099369461948AB
:1022280001F094FD18BB164D284601F02DFE154C03
:10223800204601F029FE0221284601F07CFF1021EA
:10224800204601F078FF104803F0BCFA0F4803F06D
:10225800B9FA0F4803F0B6FA0BB030BD01224FF4BB
:1022680080510C4802F06CFC00F094FFD1E7012289
:102278004FF48051074802F063FC00F08BFFD2E76F
:10228800280A0020500A0020DC0A0020240B002025
:10229800FC0B0020001C024000B58BB0C0F3072CDB
:1022A8008DF820C08DF82100C1F307208DF8220099
:1022B8008DF82310C2F307218DF824108DF82520FE
:1022C800C3F307228DF826208DF8273000230293C8
:1022D8000393049305930693079340F2FF13029325
:1022E80008230693042301936B4408AA02A907480C
:1022F80001F0F8FD10B90BB05DF804FB01224FF4B2
:102308008051034802F01CFCF5E700BF280A0020B2
:10231800001C024000B58BB0B0F9003090F90120E4
:102328008DF820208DF82130B0F9023090F9032083
:102338008DF822208DF82330B0F9043090F905206B
:102348008DF824208DF82530B0F9063090F9072053
:102358008DF826208DF827300023029303930493E9
:102368000593069307934FF400730293082306938B
:102378000123019301AB08AA02A9074801F0B2FDA5
:1023880010B90BB05DF804FB01224FF480510348EB
:1023980002F0D6FBF5E700BF500A0020001C0240FF
:1023A80000B589B0C0F307238DF81C308DF81D00E7
:1023B800002301930293039304930593069340F239
:1023C800FF1301930223059300936B4607AA01A903
:1023D800064801F087FD10B909B05DF804FB012239
:1023E8004FF48051024802F0ABFBF5E7500A002099
:1023F800001C024000B589B000EB800000EB8000B3
:102408008300C0F387108DF81C008DF81D30002361
:102418000193029303930493059306934FF4047373
:1024280001930223059300936B4607AA01A9074865
:1024380001F058FD10B909B05DF804FB01224FF412
:102448008051034802F07CFBF5E700BF500A0020EA
:10245800001C024010B58AB00446354B984205D09E
:102468000221204601F067FE0AB010BD01AB03AAA5
:10247800002101F0B5FD0028F2D1039B40F20522AE
:10248800934219D040F2062293422BD040F2072201
:10249800934236D0B3F5027F42D19DF806301B0235
:1024A8001BB29DF807001843FEF7D8F92149FEF73B
:1024B80029FA214B5860D3E79DF80400000200B2C6
:1024C8009DF80530184341F27073984202DDA0F57B
:1024D800005000B2FEF7C2F91849FEF713FA184B7C
:1024E8001860BDE79DF806301B021BB29DF8070077
:1024F8001843FEF7B3F90F49FEF704FA114B1860B9
:10250800AEE79DF806301B021BB29DF80700184382
:10251800FEF7A4F90749FEF7F5F9074B18609FE79E
:1025280001224FF48051084802F00AFB98E700BFE7
:10253800280A00205077D63D58050020DB0F493A7D
:10254800500500204C050020001C024030B58BB01F
:102558000446284B984205D01021204601F0EBFD97
:102568000BB030BD01AB03AA012101F039FD0028F1
:10257800F2D1039B40F20522934213D0A3F2012526
:10258800032D2BD89DF806301B021BB29DF80700BF
:102598001843FEF763F91849FEF7B4F9174B43F8E7
:1025A8002500D9E79DF804301B021BB29DF80520D1
:1025B80013439BB2A3F52A7000B2B0F5805F03DD28
:1025C800A3F50A53283B18B2FEF748F900F100407A
:1025D8000B49FEF797F90B4B1860BDE740F2112243
:1025E8009342B9D001224FF48051074802F0A8FA6B
:1025F800B2E700BF500A00205077D63D38050020CA
:10260800DB0F493A48050020001C024070B504461B
:10261800C3B2032B3ED808461146FEF769F80546B3
:102628001D4E56F82410FEF765F846F824001B499D
:10263800FEF71AFB10B1194A46F824201849164B20
:1026480053F82400FEF706FB18B1134B144A43F85D
:102658002420144E29463068FEF754F9054671685F
:102668000D4B53F82400FEF74DF901462846FEF7B6
:1026780041F804460C49FEF701FB00B10A4C0B492E
:102688002046FEF7DDFA00B1084C2046FEF700FBB5
:1026980000B270BD0020FCE77005002000B80847B4
:1026A80000B808C72800002000B07E4600B07EC6EB
:1026B80070B50446114E3168FEF71AF805463460C5
:1026C8000F4E21463068FEF71DF904462946B068CA
:1026D800FEF718F901462046FEF70CF804464FF0BD
:1026E8008141FEF7CBFA08B14FF0814405492046F5
:1026F800FEF7A6FA00B1034C204670BD88050020FD
:1027080034000020000080C038B5FDF7F1FF044612
:10271800184D2968FDF7EEFF28601749FEF7AEFA55
:1027280008B1154A2A601549124B1868FEF788FA4D
:1027380010B1104B114A1A60114D21462868FEF756
:10274800E1F804460B4B19686868FEF7DBF80146A8
:102758002046FDF7CFFF04460A49FEF78FFA00B17D
:10276800084C09492046FEF76BFA00B1064C204692
:1027780038BD00BF6C050020D9CE373FD9CE37BF52
:10278800700000200020CB460020CBC62DE9F04188
:1027980015461E46FDF7ACFF0446DFF84880D8F81A
:1027A8000010FDF7A5FF0746C8F80040DFF838809D
:1027B8002146D8F80000FEF7A5F804463946D8F8AF
:1027C8000800FEF79FF801462046FDF793FF3146C3
:1027D800FDF790FF2946FFF797FFFEF759FA00B279
:1027E800BDE8F0818405002064000020000000009E
:1027F80038B504460021FEF741FA20B124492046A5
:10280800FEF780F80446234D29682046FDF772FF3D
:102818002860FDF739FE1AA3D3E90023FDF70AFF64
:1028280008B11D4A2A601B4B1868FDF72DFE16A338
:10283800D3E90023FDF7E0FE10B1164B174A1A60E2
:10284800174D21462868FEF75DF80446114B1968B4
:102858006868FEF757F801462046FDF74BFF044627
:102868001049FEF70BFA00B10E4C0F492046FEF74F
:10287800E7F900B10C4C204638BD00BFAFF300802B
:102888007F6ABC749318D43F7F6ABC749318D4BF12
:1028980000004040640500209CC4A03E9CC4A0BE2B
:1028A800580000200020CB460020CBC6F8B50446CF
:1028B8000D46254E3168FDF71DFF30604FF07A5107
:1028C800FEF7D2F910B14FF07A5232601F491E4B11
:1028D8001868FEF7BFF910B11B4B1C4A1A601C4E52
:1028E80031682046FDF704FF07463460194E21463B
:1028F8003068FEF707F80446134B19687068FEF74E
:1029080001F801462046FDF7F5FE04463946B06851
:10291800FDF7F8FF01462046FDF7ECFE04460E4998
:10292800FEF7ACF900B10C4C0C492046FEF788F9CB
:1029380000B10A4C29462046FDF7DAFEFFF758FF9A
:10294800FEF7A6F900B2F8BD68050020000080BEB9
:10295800800500204C000020D253FB41D253FBC11C
:1029680038B50446194D2968FDF7C4FE2860184992
:10297800FEF784F908B1164A2A601649134B1868FD
:10298800FEF75EF910B1114B124A1A60124D21463A
:102998002868FDF7B7FF04460C4B19686868FDF70F
:1029A800B1FF01462046FDF7A5FE04460B49FEF798
:1029B80065F900B1094C0A492046FEF741F900B112
:1029C800074C2046FEF764F900B238BD60050020C8
:1029D80000009643000096C34000002000401C46BB
:1029E80000401CC61B490B68DA6842F01002DA6026
:1029F8005A6942F040025A618B6B1A68136823F0D7
:102A08000103136003E01A6822F001021A60114BF7
:102A18009B6B1B681A6812F0010FF4D10E4A9A607A
:102A28000C4B9A6B11680D4ACA60996B096824327D
:102A38000A619A6B1268242151609A6B11680A68BE
:102A480042F480220A609B6B1A68136843F0010302
:102A580013607047480D0020044800408C05002092
:102A68002DE9F04105460C46434802F0A4F801F070
:102A7800ADF8424B1860237853B9627842B9A2780E
:102A880032B9E27822B9227912B96279002A70D073
:102A9800607843EA0023C3F30A032B826778A0789F
:102AA800FF0847EA4017C7F30A076F82A678E2785B
:102AB800B60946EA8206207946EA8026C6F30A065F
:102AC800AE82207994F80580400840EAC810C0F327
:102AD8000A08A5F81680A3F5806000B22882FDF7E1
:102AE800BDFE2749FDF7C2FFE860A7F5806000B288
:102AF8006882FDF7B3FE2249FDF7B8FFA860A6F586
:102B0800806000B2A882FDF7A9FE1D49FDF7AEFF5F
:102B18006860A8F5806000B2E882FDF79FFE18495A
:102B2800FDF7A4FF286063799B092B766379C3F3CB
:102B380001136B76A379E27943EA02236B83237A44
:102B4800627A43EA0223AB83A37AE27A43EA022356
:102B5800EB83237B85F82030637B85F82130A37BCA
:102B6800E27B43EA02236B84237C627C43EA0223F0
:102B7800AB84BDE8F08100BF780A0020FC05002086
:102B880000002544384B1B681A6812F0100F6AD0F1
:102B980000B583B0002201921A6801925B68019324
:102BA800019B314B9B6B1B681A6812F4002F2ED1C6
:102BB8001A6822F001021A6003E01A6822F0010282
:102BC8001A60294B9B6B1B681A6812F0010FF4D12D
:102BD8005A68C2F1240292B224490A802421596019
:102BE80021498B6B1868036843F4002303608B6BDF
:102BF80019680B6843F001030B60122A02D003B076
:102C08005DF804FB1A491B48FFF72AFFF7E71A6823
:102C180022F001021A6003E01A6822F001021A6029
:102C2800114B9B6B1B681A6812F0010FF4D15A689C
:102C3800C2F1240292B20D490A80242159600A493E
:102C48008B6B1868036823F4002303608B6B196887
:102C58000B6843F001030B60122AD0D106490548DE
:102C6800FFF7FEFECBE77047480D00200006002066
:102C78008C050020D4050020B005002008B50722E7
:102C88000249034803F034FD08BD00BF0C060020CC
:102C98008C0D0020094B1B8883420CD0002300E0D8
:102CA80001330B2B07D8064A32F813208242F7D19A
:102CB800024A1080F4E7014B188870477E00002014
:102CC8009C7F00080346104605E013F8011B4140AD
:102CD8000348405C11464A1E0029F6D1704700BFE0
:102CE8009C7E000870B138B5054602290CD94C1EE7
:102CF800FF222146FFF7E6FF2B5D834214BF002029
:102D0800012038BD002070470020FAE708B52E4B97
:102D1800834200D008BD2D4B1B782BB32C4B1B785E
:102D2800A52B04D105212A48FFF7DCFF10B9FFF7CE
:102D3800A5FFEFE7264B5A78997842EA0122254900
:102D48000A80D87888701879C87058799B7940EAD1
:102D580003238B801D4B00211970023292B21E4949
:102D6800194803F0C5FCD5E71A4B9B8840F20122AD
:102D780093420CD040F2022293421AD0134B012204
:102D88001A7007221249104803F0B2FCC2E7124B2E
:102D98009979DA7941EA0221104A1181197A587A27
:102DA80041EA00215181997ADB7A41EA03231380B1
:102DB800E4E7094A536809494B60937AD27A43EAAF
:102DC80002238B81DAE700BF8C0D00207C000020F5
:102DD8000C0600200406002024060020140600200B
:102DE80008B50D480D4B036003234360002383603F
:102DF800C3604FF4102202614FF40012426103765F
:102E080043768376C3760377437700F0F9FE00B9FB
:102E180008BD00F0BFF9FBE7280A00200064004065
:102E280008B50D480D4B03600323436000238360FE
:102E3800C3604FF4102202614FF40012426103761E
:102E480043768376C3760377437700F0D9FE00B9DB
:102E580008BD00F09FF9FBE7500A00200068004019
:102E680010B58AB000230593069307930893099336
:102E780003683D4A934204D03C4A934234D00AB096
:102E880010BD3B4A136801331360012B1FD0002487
:102E98000194384B1A6B42F008021A631B6B03F05B
:102EA80008030193019B03230593022206920893CA
:102EB8000923099305A9304801F050FD2246012154
:102EC800142001F08DFA142001F0C2FAD7E700238C
:102ED8000093284B1A6C42F000721A641B6C03F0C2
:102EE80000730093009BD2E700230293214B1A6CD6
:102EF80042F080621A641B6C03F080630293029BA9
:102F08001B4A136801331360012B20D0002404945A
:102F1800184B1A6B42F002021A631B6B03F0020390
:102F28000493049B602305930223069303230893C9
:102F38000923099305A9114801F010FD2246012132
:102F4800412001F04DFA412001F082FA97E7002371
:102F58000393084B1A6C42F000721A641B6C03F05E
:102F680000730393039BD1E70064004000680040AE
:102F7800240A002000380240000C024000040240ED
:102F880010B582B000240094124B1A6B42F4001260
:102F98001A631A6B02F400120092009A01941A6BD9
:102FA80042F480021A631B6B03F480030193019BB4
:102FB800224621460C2001F013FA0C2001F048FAB1
:102FC80022462146392001F00BFA392001F040FA57
:102FD80002B010BD003802402DE9F0438DB0002446
:102FE8000794089409940A940B940194414B1A6B22
:102FF80042F002021A631A6B02F002020192019A6D
:1030080002941A6B42F040021A631A6B02F04002F3
:103018000292029A03941A6B42F001021A631A6B25
:1030280002F001020392039A04941A6B42F0080218
:103038001A631A6B02F008020492049A05941A6B38
:1030480042F004021A631A6B02F004020592059A10
:1030580006941A6B42F080021A631B6B03F080031C
:103068000693069BDFF8909001224FF48071484642
:1030780001F066FD214F22464FF4E051384601F039
:103088005FFDDFF87C8001221021404601F058FDE9
:103098001C4E01221146304601F052FD4FF4807358
:1030A80007930125089509950A9407A9484601F050
:1030B80055FC4FF4E05307930895022309930A94AB
:1030C80007A9384601F04AFC10230793089509948C
:1030D80003270A9707A9404601F040FC0795089581
:1030E80009940A9707A9304601F038FC0DB0BDE8ED
:1030F800F08300BF0038024000080240001C024074
:10310800000002400004024008B50748074B03606E
:103118000323436040F2E733836001F020FD00B9E8
:1031280008BD00F037F8FBE7780A002000300040BF
:1031380010B5084C0821204602F048FE23684FF4D9
:10314800FA72DA63642000F047FD23680022DA632C
:1031580010BD00BF6C0B002008B500224FF4807131
:10316800014801F0EDFC08BD0008024008B5012245
:103178004FF48071014801F0E3FC08BD00080240EB
:1031880008B54FF40061024801F0E0FC08BD00BF3B
:10319800001C024072B6FEE700B595B0302200214F
:1031A80008A803F0EBFA002303930493059306930E
:1031B80007930193214A116C41F080511164126CFC
:1031C80002F080520192019A02931D4B1A6842F450
:1031D80080421A601B6803F480430293029B092310
:1031E80008934FF48033099301230D9302230E9320
:1031F8004FF480020F9206221092A8221192129385
:103208000423139308A801F0DDFC98B90F23039356
:1032180002230493002305934FF4A05306934FF41D
:1032280080530793052103A801F01AFF20B915B0B0
:103238005DF804FBFFF7AEFFFFF7ACFF0038024074
:103248000070004008B500F09BFCFFF7A5FFFFF7F2
:10325800C3FEFFF795FE00F02DF900F061F900F0CC
:10326800A1FA00F095F900F0CBF900F0F3FA00F0BC
:103278000BFB00F025FB00F027F8FFF7B1FDFFF787
:10328800CFFDFFF741FFFFF7F9FCFFF751FFFFF70D
:1032980063FFFFF7A7FB4FF47A7000F09DFCFEF781
:1032A80039FDFEF7A3FF03E0FFF756FFFFF768FFBE
:1032B800142000F091FC034B1B7E012BF4D9FFF77F
:1032C80055FFF3E7D405002008B50F480F4B0360FE
:1032D8004FF48273436000238360C360022202615B
:1032E800012242614FF4007282611822C2610362B6
:1032F800436283620A23C36202F026F800B908BD5C
:10330800FFF748FFFBE700BF840A002000300140B8
:10331800F0B589B0002303930493059306930793AC
:1033280002681E4B9A4201D009B0F0BD00240094F7
:1033380003F584335A6C42F480525A645A6C02F48E
:1033480080520092009A01941A6B42F002021A63AA
:103358001A6B02F002020192019A02941A6B42F06F
:1033680001021A631B6B03F001030293029B1823EB
:10337800039302270497032606960525079503A9B4
:10338800074801F0EBFA8023039304970594069607
:10339800079503A9034801F0E1FAC5E700300140A9
:1033A800000402400000024082B0002100910B4B53
:1033B8005A6C42F480425A645A6C02F48042009279
:1033C800009A01911A6C42F080521A641B6C03F047
:1033D80080530193019B02B0704700BF0038024040
:1033E800FEE7FEE7FEE7FEE7FEE770477047704737
:1033F80008B500F0DFFB08BD08B5024801F0C0F9C8
:1034080008BD00BF440C002008B5024800F0B0FE1B
:1034180008BD00BF280A002008B5FEF723F90248B6
:1034280002F01AFA08BD00BFDC0A002008B5FEF752
:1034380079F8FDF7EBFE024802F00EFA08BD00BF6E
:10344800240B002008B5FFF79DFB024802F064FF3B
:1034580008BD00BF480D002008B5FEF72BFE024846
:1034680002F0FAF908BD00BFB40B002008B5FEF75A
:103478001FF8024802F0F0F908BD00BFFC0B00205D
:1034880008B5024801F07CF908BD00BFA40C002073
:1034980008B5024800F06CFE08BD00BF500A0020C5
:1034A80008B5024802F038FF08BD00BF8C0D0020A7
:1034B8007047000000B587B000230293039304937C
:1034C80005930093019315484FF080420260532200
:1034D8004260836040F2E732C2600361836102F0B8
:1034E800DDFA90B94FF48053029302A90B4802F019
:1034F800DFFB68B90023009301936946074802F08F
:10350800E7FC40B907B05DF804FBFFF743FEE9E7C5
:10351800FFF740FEEEE7FFF73DFEF3E7DC0A002089
:1035280000B587B000230293039304930593009397
:1035380001931548154A026053224260836040F2A5
:10354800E732C2600361836102F0A8FA90B94FF4D0
:103558008053029302A90C4802F0AAFB68B9002321
:10356800009301936946084802F0B2FC40B907B0DD
:103578005DF804FBFFF70EFEE9E7FFF70BFEEEE749
:10358800FFF708FEF3E700BF240B0020000400400B
:1035980000B587B000230293039304930593009327
:1035A80001931548154A026053224260836040F235
:1035B800E732C2600361836102F070FA90B94FF498
:1035C8008053029302A90C4802F072FB68B90023E9
:1035D800009301936946084802F07AFC40B907B0A5
:1035E8005DF804FBFFF7D6FDE9E7FFF7D3FDEEE74B
:1035F800FFF7D0FDF3E700BFB40B0020000C00403C
:1036080000B583B00023009301930F480F4A02606E
:1036180042F2CF024260836040F2CF72C26083619F
:1036280002F03CFA50B9002300930193694606481A
:1036380002F04EFC28B903B05DF804FBFFF7AAFDC1
:10364800F1E7FFF7A7FDF6E7FC0B002000140040A8
:1036580000B587B00368B3F1804F0ED0364A934265
:1036680020D0364A934231D0354A93423BD0354A2E
:1036780093424CD007B05DF804FB0022019203F599
:103688000E33196C41F0010119641B6C03F001033E
:103698000193019B01211C2000F0A2FE1C2000F0D8
:1036A800D7FEE7E700220292274B196C41F002018E
:1036B80019641B6C03F002030293029B01211D2075
:1036C80000F08EFE1D2000F0C3FED3E70023039315
:1036D8001D4B1A6C42F004021A641B6C03F00403BD
:1036E8000393039BC6E700220492174B196C41F021
:1036F800080119641B6C03F008030493049B01215F
:10370800322000F06DFE322000F0A2FEB2E7002267
:1037180005920D4B196C41F0200119641B6C03F0E4
:1037280020030593059B0321372000F059FE37201D
:1037380000F08EFE9EE700BF000400400008004035
:10374800000C0040001400400038024000B587B06B
:1037580000230193029303930493059302680E4B8D
:103768009A4202D007B05DF804FB002300930B4B8C
:103778001A6B42F008021A631B6B03F008030093EC
:10378800009B4FF48043019302230293059301A900
:10379800034801F0E3F8E5E700080040003802407C
:1037A800000C024000B58FB000230A930B930C93D2
:1037B8000D9308930993019302930393049305933C
:1037C800069307932148224A02605322426083608D
:1037D80040F2E732C2600361836102F05FF928BBFF
:1037E8004FF480530A930AA9184802F061FA00BB03
:1037F800164802F07FF9F8B900230893099308A93D
:10380800124802F065FBD0B96023019300230293AC
:1038180003930593082201A90C4802F0CFF988B94F
:103828000A48FFF793FF0FB05DF804FBFFF7B2FCFF
:10383800D6E7FFF7AFFCDBE7FFF7ACFCDCE7FFF709
:10384800A9FCE1E7FFF7A6FCEAE700BF6C0B002044
:103858000008004008B50A480A4B03604FF4E133FA
:10386800436000238360C36003610C22426183616B
:10387800C36102F06BFC00B908BDFFF78BFCFBE7E6
:10388800040D00200010014008B50A480A4B0360E7
:103898000A4B436000238360C36003610C224261CA
:1038A8008361C36102F052FC00B908BDFFF772FCE6
:1038B800FBE700BF480D002000480040A08601003B
:1038C80008B50A480A4B03604FF4E133436000230C
:1038D8008360C36003610C2242618361C36102F0AB
:1038E80035FC00B908BDFFF755FCFBE78C0D00203F
:1038F80000140140F0B58DB0002307930893099395
:103908000A930B9303686A4A934209D00446694AAA
:1039180093423DD0684A934200F083800DB0F0BDD9
:1039280000240094654B5A6C42F010025A645A6C99
:1039380002F010020092009A01941A6B42F00202FF
:103948001A631A6B02F002020192019A02941A6B2E
:1039580042F001021A631B6B03F001030293029BFE
:10396800802307930227089703260A9607250B95B5
:1039780007A9534800F0F2FF4FF400730793089724
:1039880009940A960B9507A94E4800F0E7FFC5E78A
:1039980000250395494B1A6C42F480221A641A6C6C
:1039A80002F480220392039A04951A6B42F00402EF
:1039B8001A631B6B03F004030493049B4FF44063E6
:1039C80007930223089303230A9307230B9307A95A
:1039D8003D4800F0C3FF3D483D4B03604FF0006396
:1039E80043608560C5604FF480630361456185610C
:1039F8004FF48073C3614FF440330362456200F0B3
:103A0800C7FD58B9314BA3639C6300221146272098
:103A180000F0E6FC272000F01BFD7FE7FFF7BAFB6C
:103A2800F0E700250595254B5A6C42F020025A64B0
:103A38005A6C02F020020592059A06951A6B42F01C
:103A480040021A631B6B03F040030693069B4FF476
:103A5800844307930223089303230A9308230B93B1
:103A680007A91C4800F07AFF1B481C4B03604FF065
:103A7800206343608560C5604FF4806303614561DE
:103A88008561C5614FF440330362456200F080FDF3
:103A980058B9114BA3639C6300221146472000F0DC
:103AA8009FFC472000F0D4FC38E7FFF773FBF0E7F2
:103AB8000010014000480040001401400038024056
:103AC800000402400000024000080240440C0020AC
:103AD8002860024000180240A40C0020286402401C
:103AE800DFF834D00D480E490E4A002302E0D458BE
:103AF800C4500433C4188C42F9D30B4A0B4C00232E
:103B080001E013600432A242FBD3FFF7D1FC02F0BC
:103B180011FEFFF797FB704700000220000000200D
:103B2800BC04002000840008BC040020D80D00203C
:103B3800FEE7000010B504460E4B18784FF47A7370
:103B4800B3FBF0F30C4A1068B0FBF3F000F08EFC06
:103B580068B90F2C01D901200AE0002221464FF054
:103B6800FF3000F03DFC054B1C60002000E0012008
:103B780010BD00BF840000208000002088000020C5
:103B880008B50B4B1A6842F400721A601A6842F4BE
:103B980080621A601A6842F480721A60032000F08A
:103BA8000DFC0F20FFF7C6FFFFF7FEFB002008BD46
:103BB800003C0240034A1168034B1B780B44136016
:103BC800704700BFD00D002084000020014B18680A
:103BD800704700BFD00D002038B50446FFF7F6FF48
:103BE8000546B4F1FF3F02D0044B1B781C44FFF795
:103BF800EDFF401BA042FAD338BD00BF840000206F
:103C0800002800F0A18038B5044690F82030D3B1E0
:103C18002268136843F001031360FFF7D7FF0546D6
:103C280023685A6812F0010F10D1FFF7CFFF401B2D
:103C38000A28F5D9636A43F400336362052384F8DC
:103C48002030012038BDFFF70BF9E1E71A6822F0B0
:103C580002021A60FFF7BAFF054623685A6812F095
:103C6800020F0DD0FFF7B2FF401B0A28F5D9636A8F
:103C780043F400336362052384F820300120E1E730
:103C8800227E012A3DD01A6822F080021A60637EE3
:103C9800012B3BD02268136823F040031360A37EF6
:103CA800012B39D02268136823F020031360E37EC8
:103CB800012B37D02268136843F010031360237F69
:103CC800012B35D02268136823F008031360637F43
:103CD800012B33D02268136823F004031360A36810
:103CE800E268134322691343626913436268013A25
:103CF80021681343CB6100206062012384F82030DF
:103D0800A0E71A6842F080021A60C0E722681368C8
:103D180043F040031360C2E72268136843F02003AE
:103D28001360C4E72268136823F010031360C6E722
:103D38002268136843F008031360C8E72268136811
:103D480043F004031360CAE70120704790F820305D
:103D5800013BDBB2012B05D9436A43F4802343625C
:103D68000120704710B5474BD3F8002242F00102FA
:103D7800C3F80022D3F8002222F47C52C3F80022B0
:103D8800D3F80022486A42EA0022C3F800224A69AE
:103D980002F01F02012000FA02F2D3F81C026FEAB7
:103DA800020C20EA0200C3F81C02CB69CBB9354BE0
:103DB800D3F80C020CEA0000C3F80C028C8848699E
:103DC800D1F80CE044EA0E44483043F830408C689F
:103DD800088840EA04404C6904F1480E03EBCE031E
:103DE8005860CB69012B1ED08B69002B35D1254833
:103DF800D0F804320CEA0303C0F804320B699BBB09
:103E08002048D0F814320CEA0303C0F814320B6AC5
:103E1800012B30D01B4AD2F8003223F00103C2F83C
:103E28000032002010BD174BD3F80C021043C3F822
:103E38000C028C884869D1F800E044EA0E44483006
:103E480043F8304088894C69D1F808E040EA0E40D0
:103E5800483403EBC4035860C6E70A48D0F8043274
:103E68001343C0F80432C9E70648D0F814321343A4
:103E7800C0F81432CBE70349D1F81C321A43C1F811
:103E88001C22C7E70064004070B5044690F8205033
:103E9800EDB2012D06D0436A43F4002343620125A5
:103EA800284670BD022380F820300268136823F08A
:103EB80001031360FFF78AFE064623685B6813F068
:103EC800010F0CD0FFF782FE831B0A2BF5D9636A1A
:103ED80043F400336362052384F82030E0E70025CB
:103EE8006562DDE730B590F820C00468A4680CF17D
:103EF800FF3C5FFA8CFCBCF1010F6BD814F0E05F5B
:103F080062D0C4F3016CBCF1020F05D9436A43F4D3
:103F180000034362012062E0012404FA0CF41C60EF
:103F28008B68002B3DD10D68CB68046843EA455582
:103F38000CF118031B01E55003680C690CF1180E0D
:103F480003EB0E135C600B7D012B35D0D17993798F
:103F58001B0443EA0163517943EA01231479016898
:103F6800234301EB0C11C1F88C31D17893781B04F1
:103F780043EA0163517843EA0123117802680B434D
:103F880002EB0C12C2F8883102680CF1180C4FEAE7
:103F98000C1C52F80C3043F0010342F80C3000209E
:103FA8001DE04C6843EAC403CC6823430CF11804B1
:103FB800240105682B51BFE7036803EB0E1359680A
:103FC80041F480715960C1E7436A43F400134362C6
:103FD800012004E0436A43F480234362012030BD9A
:103FE80090F820C00CF1FF3C5FFA8CFCBCF1010F8B
:103FF80000F29B8010B451B90468E46814F0030F10
:1040080010D1436A43F40013436201207BE0046843
:10401800246914F0030F05D1436A43F40013436283
:10402800012070E001F11B042401D0F800C05CF805
:10403800044004F004049460002C66D101F11B04D0
:104048002401D0F800C05CF80440640D14600468D2
:1040580001F11B0C4FEA0C1C54F80C4004F002044C
:10406800D46004686444646804F00F04146104684C
:1040780064446468C4F3072494610468644464680D
:10408800240C5461026802EB0112D2F8B8211A70AC
:10409800026802EB0112D2F8B821C2F307225A7063
:1040A800026802EB0112D2F8B821C2F307429A70F3
:1040B800026802EB0112D2F8B821120EDA70026817
:1040C80002EB0112D2F8BC211A71026802EB01124C
:1040D800D2F8BC21C2F307225A71026802EB01121E
:1040E800D2F8BC21C2F307429A71026802EB0112AE
:1040F800D2F8BC21120EDA7189B90268D36843F08C
:104108002003D360002010BC704701F11B04240178
:10411800D0F800C05CF80440E408546097E70268EF
:10412800136943F020031361ECE7436A43F48023E7
:1041380043620120704790F82030013BDBB2012B2D
:1041480005D9436A43F4802343620120704702681B
:104158005369194351610020704770477047704791
:10416800704770477047704770477047704770478F
:104178002DE9F84F054603685C69D3F804809F6809
:10418800D3F80CB0D3F810A0D3F8189014F00106A7
:104198003BD017F0010616D001229A6017F0020FE3
:1041A80008D117F0040F0CD117F0080606D04FF409
:1041B800805608E0FFF7D1FF002604E0FFF7D0FFA4
:1041C80001E04FF4006617F4807F0DD02B684FF4A0
:1041D80080729A6017F4007F40F0868017F4806F31
:1041E80000F0868046F4005617F4803F0DD02B6807
:1041F8004FF480329A6017F4003F40F0838017F440
:10420800802F00F0838046F4004614F0080F07D092
:104218001BF0100F04D046F400762B681022DA60E9
:1042280014F0040F02D01BF0080F79D114F0020F1C
:1042380004D02B68DB6813F0030F78D114F0400F1B
:1042480007D01AF0100F04D046F480662B681022AD
:104258001A6114F0200F02D01AF0080F6BD114F075
:10426800100F04D02B681B6913F0030F6AD114F4E4
:10427800003F02D018F0100F68D114F4803F02D02C
:1042880018F0080F69D114F4004F7AD018F0040F11
:1042980074D014F4807F04D019F0010F01D046F0D7
:1042A800010614F4007F04D019F0020F01D046F083
:1042B800020614F4806F04D019F0040F01D046F000
:1042C800040614F4006F59D019F0700956D0B9F1EA
:1042D800400F65D058D8B9F1200F5ED0B9F1300F32
:1042E80042D146F0200644E02846FFF737FF7BE737
:1042F80017F4006F02D046F4804675E72846FFF7AA
:1043080030FF71E72846FFF72AFF7EE717F4002FF2
:1043180002D046F4803678E72846FFF723FF74E793
:104328002B680822DA602846FFF71DFF7EE728463B
:10433800FEF790F882E72B6808221A612846FFF7F3
:1043480013FF8CE72846FEF701F990E72B68102247
:104358005A602846FFF709FF8FE72B6808225A6042
:104368002846FFF703FF8EE7B9F1100F01D146F099
:1043780008062A68936923F0700393612B68042266
:104388005A609EB9BDE8F88FB9F1500F0BD0B9F15A
:10439800600FEED146F48076EBE746F01006E8E7CA
:1043A80046F04006E5E746F08006E2E76B6A1E4302
:1043B8006E622846FFF7DBFEE4E70000074AD36891
:1043C80023F4E0631B041B0C000200F4E0600343C9
:1043D80043F0BF6343F40033D360704700ED00E05F
:1043E80000B5194BDB68C3F30223C3F1070CBCF11A
:1043F800040F28BF4FF0040C03F1040EBEF1060FA2
:1044080018D9033B4FF0FF3E0EFA0CFC21EA0C01D1
:1044180099400EFA03F322EA0303194300280BDB41
:104428000901C9B200F1604000F5614080F800134D
:104438005DF804FB0023E5E700F00F000901C9B2AD
:10444800024B1954F4E700BF00ED00E014ED00E062
:10445800002807DB00F01F02400901239340024AAD
:1044680042F82030704700BF00E100E00138B0F1A9
:10447800807F0BD24FF0E0235861054AF02182F883
:1044880023100020986107221A61704701207047A5
:1044980000ED00E030B405682C6824F480242C601A
:1044A800046863608368402B05D0036899600368DB
:1044B800DA6030BC704703689A600368D960F8E72F
:1044C80010B40368D9B210390B4AA2FB0142120991
:1044D8000A4CA25CC2655F2908D923F47F7323F0D4
:1044E800030304338365806D10BC704723F47F7326
:1044F80023F003038365F6E7ABAAAAAAD47F0008D2
:10450800836A826992B9012B0AD0022B02D00BB1BF
:1045180000207047C36A13F0807F28D100207047BD
:10452800C36AB3F1C07F24D000207047B2F5005FA2
:1045380009D0022B25D9032B25D1C36A13F0807F1C
:1045480023D100207047032B03D8DFE803F01404BD
:10455800140A00207047C36A13F0807F0DD1002031
:104568007047C36AB3F1C07F09D0002070470120AB
:1045780070470120704701207047012070470120D3
:1045880070470120704700207047012070470000E5
:1045980070B50446FFF71AFB002C5BD005460223D2
:1045A80084F83530002384F834302268136823F007
:1045B8000103136023681A6812F0010F0AD0FFF78D
:1045C80005FB431B052BF5D920236365032084F8DD
:1045D800350070BD1A68204810406168A2680A4317
:1045E800E1680A4321690A4361690A43A1690A43E8
:1045F800E1690A43216A0A430243616A04291ED019
:104608001A602668756925F00705636A1D43042B3F
:1046180007D1A36A1D43E36A1BB12046FFF770FF69
:1046280090B975612046FFF74BFFE26D3F23934039
:10463800836000206065012384F83530C9E7E16AAA
:10464800206B01430A43DBE740236365012084F8BC
:104658003500BEE70120BCE73F8010F038B50446BE
:10466800856D90F8340001282BD0012084F834009F
:1046780094F83500C0B2012804D0002384F83430FF
:10468800022038BD022084F83500002060652046ED
:10469800FFF700FFE26D3F239340AB602268136889
:1046A80043F016031360236C23B12268136843F0A8
:1046B800080313602268136843F0010313600020A5
:1046C800DFE70220DDE770B50446866DFFF77EFA66
:1046D80094F83530DBB2022B06D0802363650023C3
:1046E80084F83430012070BD05462268136823F031
:1046F800160313602268536923F080035361236C07
:10470800E3B12268136823F0080313602268136872
:1047180023F00103136023681B6813F0010F11D005
:10472800FFF754FA431B052BF5D9202363650320B3
:1047380084F83500002384F83430D4E7A36C002BC8
:10474800DFD1E3E7E26D3F239340B360012384F8B0
:104758003530002084F83400C5E790F83530DBB2F6
:10476800022B03D08023436501207047052380F87E
:1047780035300268136823F0010313600020704786
:10478800F0B583B0044600230193724B1D68724B49
:10479800A3FB0535AD0A876D3E68C26D08239340BB
:1047A800334210D003681A6812F0040F0BD01A684D
:1047B80022F004021A60C26D08239340BB60436D67
:1047C80043F001034365E26D01239340334209D06E
:1047D8002268526912F0800F04D0BB60636D43F009
:1047E80002036365E26D04239340334209D02268D3
:1047F800126812F0020F04D0BB60636D43F004032B
:104808006365E26D10239340334224D02268126816
:1048180012F0080F1FD0BB6023681A6812F4802FAB
:104828000DD01B6813F4002F04D1236C9BB12046D4
:10483800984710E0A36C73B1204698470BE01A68BC
:1048480012F4807F03D11A6822F008021A60236CE0
:104858000BB120469847E26D20239340334255D050
:104868002268126812F0100F50D0BB6094F83530EF
:10487800DBB2052B0ED023681A6812F4802F33D0D0
:104888001B6813F4002F2AD1636C002B3ED02046FE
:1048980098473BE02268136823F0160313602268E8
:1048A800536923F080035361236CA3B12268136812
:1048B80023F008031360E26D3F239340BB6001239C
:1048C80084F83530002384F83430236D002B3FD032
:1048D800204698473CE0A36C002BE7D1EBE7E36B5D
:1048E800A3B12046984711E01A6812F4807F09D1D5
:1048F8001A6822F010021A60012384F83530002368
:1049080084F83430E36B0BB120469847636DFBB1F4
:10491800636D13F0010F17D0052384F83530226832
:10492800136823F001031360019B01330193AB4229
:1049380004D823681B6813F0010FF5D1012384F80C
:104948003530002384F83430E36C0BB120469847A7
:1049580003B0F0BD80000020B5814E1B00230F2B53
:1049680000F2E48070B582B060E085685E000324E0
:10497800B44025EA0405CC68B4402C4384604568FB
:1049880025EA02054C68C4F300129A402A434260A3
:104998005AE0DC08083450F8246003F00702950058
:1049A8000F22AA4026EA020E0A69AA4042EA0E022B
:1049B80040F824205CE0072200E0002202FA0EF210
:1049C8002A4302345A4D45F824205A4A94686FEA1B
:1049D8000C0224EA0C054E6816F4801F01D04CEA3C
:1049E8000405544CA560E46802EA04054E6816F410
:1049F800001F01D04CEA04054E4CE560646802EAE9
:104A080004054E6816F4003F01D04CEA0405494CF1
:104A18006560246822404D6815F4803F01D04CEA57
:104A28000402444C226001330F2B7DD801229A40A6
:104A38000C6804EA020C32EA0404F4D14C6804F06D
:104A48000304013C012C90D94A6802F00302032AAE
:104A580009D0C4685D000322AA4024EA02048A68D7
:104A6800AA402243C2604A6802F00302022A90D098
:104A780004684FEA430E032202FA0EF224EA020403
:104A88004A6802F0030202FA0EF2224302604A6800
:104A980012F4403FC7D000220192274A546C44F4D4
:104AA80080445464526C02F480420192019A9C083A
:104AB800A51C1F4A52F8255003F003024FEA820E44
:104AC8000F2202FA0EF225EA02051C4A90423FF430
:104AD80074AF02F5806290421AD002F5806290426B
:104AE80018D002F58062904216D002F5806290429A
:104AF80014D002F58062904212D002F58062904292
:104B080010D002F5806290423FF455AF082255E775
:104B1800012253E7022251E703224FE704224DE71F
:104B280005224BE7062249E702B070BD704700BF77
:104B380000380140003C01400038024000000240BB
:104B48000AB181617047090481617047436901EACC
:104B5800030221EA030141EA02418161704740B33F
:104B680038B5044603684CF6CC421A60036845F22F
:104B780055521A60036842685A60036882689A60EE
:104B8800FFF724F805462368DA6812F0030F0BD004
:104B9800FFF71CF8401B3128F5D92368DB6813F0B0
:104BA800030FF0D0032003E04AF6AA221A6000207F
:104BB80038BD0120704703684AF6AA221A6000200F
:104BC80070470000002800F0E08170B582B004460C
:104BD800036813F0010F3BD09F4B9B6803F00C0355
:104BE800042B2CD09C4B9B6803F00C03082B21D082
:104BF8006368B3F5803F4FD0B3F5A02F52D0964BE2
:104C08001A6822F480321A601A6822F480221A6024
:104C18006368002B50D0FEF7D9FF05468E4B1B6802
:104C280013F4003F14D1FEF7D1FF401B6428F5D9D7
:104C38000320B1E1884B5B6813F4800FD8D0864B12
:104C48001B6813F4003F03D06368002B00F09F81BA
:104C5800236813F0020F54D07F4B9B6813F00C0F9E
:104C68003ED07D4B9B6803F00C03082B33D0E368E0
:104C7800002B68D0794B01221A60FEF7A7FF054682
:104C8800754B1B6813F0020F54D1FEF79FFF401BB2
:104C98000228F5D903207FE16F4A136843F4803373
:104CA8001360B5E76C4B1A6842F480221A601A68E0
:104CB80042F480321A60ABE7FEF788FF0546664B80
:104CC8001B6813F4003FC3D0FEF780FF401B642825
:104CD800F5D9032060E1604B5B6813F4800FC6D1FF
:104CE8005D4B1B6813F0020F03D0E368012B40F003
:104CF8005081594A136823F0F803216943EAC10334
:104D08001360236813F0080F42D063696BB3534BE9
:104D18000122C3F8802EFEF759FF05464E4B5B6F04
:104D280013F0020F34D1FEF751FF401B0228F5D9CA
:104D3800032031E1484A136823F0F803216943EA64
:104D4800C1031360DDE7454B00221A60FEF73EFF02
:104D58000546414B1B6813F0020FD2D0FEF736FF11
:104D6800401B0228F5D9032016E13C4B0022C3F86A
:104D7800802EFEF72BFF0546374B5B6F13F0020FB3
:104D880006D0FEF723FF401B0228F5D9032003E1D4
:104D9800236813F0040F77D02F4B1B6C13F0805F40
:104DA80033D1002301932C4B1A6C42F080521A64C1
:104DB8001B6C03F080530193019B0125284B1B6852
:104DC80013F4807F23D0A368012B34D0052B38D06F
:104DD800214B1A6F22F001021A671A6F22F004029F
:104DE8001A67A368002B3DD0FEF7F0FE06461A4B63
:104DF8001B6F13F0020F46D1FEF7E8FE801B41F24D
:104E080088339842F3D90320C6E00025D6E7144A30
:104E1800136843F480731360FEF7D8FE0646104B00
:104E28001B6813F4807FCED1FEF7D0FE801B0228CA
:104E3800F5D90320B0E0084A136F43F00103136764
:104E4800CFE7054B1A6F42F004021A671A6F42F057
:104E580001021A67C5E700BF003802400000474258
:104E680000700040FEF7B2FE0646524B1B6F13F06F
:104E7800020F08D0FEF7AAFE801B41F28833984241
:104E8800F3D9032088E0EDB9A369002B00F08380F3
:104E9800484A926802F00C02082A51D0022B17D017
:104EA800454B00221A66FEF791FE0446414B1B68EB
:104EB80013F0007F42D0FEF789FE001B0228F5D9C7
:104EC800032069E03B4A136C23F080531364DBE74B
:104ED800394B00221A66FEF779FE0546354B1B68EA
:104EE80013F0007F06D0FEF771FE401B0228F5D9AB
:104EF800032051E0E369226A1343626A43EA82139A
:104F0800A26A5208013A43EA0243E26A43EA0263A8
:104F1800284A5360284B01221A66FEF757FE0446BA
:104F2800244B1B6813F0007F06D1FEF74FFE001BD1
:104F38000228F5D903202FE000202DE000202BE0E7
:104F4800012B2BD01B4B5B6803F48001E269914273
:104F580026D103F03F02216A8A4223D1616A47F6CB
:104F6800C0721A40B2EB811F1ED103F44031A26A0D
:104F78005208013AB1EB024F18D103F07063E26AAC
:104F8800B3EB026F14D1002006E001207047012026
:104F980002E0012000E0002002B070BD0120FBE724
:104FA8000120F9E70120F7E70120F5E70120F3E701
:104FB8000120F1E7003802400000474208B5254BC0
:104FC8009B6803F00C03042B3FD0082B3FD1214BE7
:104FD8005A6802F03F025B6813F4800F12D01D4B31
:104FE8005968C1F388111C480023A1FB0001FBF795
:104FF80075FE184B5B68C3F3014301335B00B0FBDC
:10500800F3F025E0134B5968C1F3881C4FEA4C11A3
:10501800B1EB0C006EEB0E0E4FEA8E1343EA906371
:105028008101091A63EB0E03DB0043EA5173C900DF
:1050380011EB0C0C43F10003990200234FEA8C207A
:1050480041EA9C51FBF74AFED3E7034800E00348D6
:1050580008BD00BF00380240001BB7000024F40060
:10506800002800F09B8070B50D4604464F4B1B6826
:1050780003F007038B4208D2CBB24C4A1370136873
:1050880003F007038B4240F08B80236813F0020F74
:1050980017D013F0040F04D0454A936843F4E05343
:1050A8009360236813F0080F04D0414A936843F4CF
:1050B800604393603E4A936823F0F003A1680B4372
:1050C8009360236813F0010F32D06368012B21D05D
:1050D8009A1E012A25D9364A126812F0020F61D0A9
:1050E80033498A6822F0030213438B60FEF76EFD92
:1050F80006462F4B9B6803F00C036268B3EB820FE4
:1051080016D0FEF763FD801B41F288339842F0D930
:10511800032042E0264A126812F4003FE0D1012041
:105128003BE0234A126812F0007FD9D1012034E015
:105138001E4B1B6803F00703AB4207D9EAB21B4BAF
:105148001A701B6803F00703AB422DD1236813F0D4
:10515800040F06D0164A936823F4E053E1680B4322
:105168009360236813F0080F07D0114A936823F45B
:105178006043216943EAC1039360FFF71FFF0C4BAB
:105188009B68C3F303130B4AD35CD8400A4B1860DF
:105198000A4B1868FEF7CEFC002070BD012070474E
:1051A8000120FAE70120F8E70120F6E7003C024079
:1051B80000380240BC7F00088000002088000020E2
:1051C800014B1868704700BF8000002008B5FFF742
:1051D800F7FF044B9B68C3F38223034AD35CD84090
:1051E80008BD00BF00380240CC7F000808B5FFF7B3
:1051F800E7FF044B9B68C3F34233034AD35CD840B0
:1052080008BD00BF00380240CC7F00082DE9F047F8
:1052180082B00546884617461E46FEF7D7FC0A9B0D
:105228001B1A03EB0609FEF7D1FC82462B4B1B68C1
:10523800C3F3CB3309FB03F301932B689C6838EA6B
:1052480004030CBF4FF0010C4FF0000CBC4540D0DC
:10525800B6F1FF3FF1D0FEF7B9FCA0EB0A004845D4
:105268000AD2B9F1000F07D0019A02B14A46019B50
:10527800013B01939146E0E72A68536823F0E00375
:1052880053606B68B3F5827F0BD0AB6AB3F5005FF0
:1052980014D0012385F85130002385F850300320BD
:1052A80018E0AB68B3F5004F02D0B3F5806FECD1CE
:1052B8002A68136823F040031360E6E72A68136836
:1052C80023F4005313602A68136843F400531360EF
:1052D800DFE7002002B0BDE8F08700BF80000020B3
:1052E80010B584B00446164B1868164BA3FB003063
:1052F800400D4FF47A7303FB00F003906368B3F535
:10530800827F0BD0039BBBB1039B013B03932368B4
:105318009B6813F0800FF5D100200EE000920B4639
:10532800002280212046FFF771FF30B1636D43F002
:1053380020036365032000E0002004B010BD00BF17
:1053480080000020819F5E1600285AD010B50446C0
:10535800436A33B94368B3F5827F05D00023C3613C
:1053680002E00023036143610023A36294F85130F3
:10537800002B40D0022384F851302268136823F0B0
:1053880040031360636803F48273A26802F4044262
:105398001343E26802F400621343226902F0020236
:1053A8001343626902F001021343A26902F4007216
:1053B8001343E26902F038021343226A02F08002C2
:1053C8001343A26A02F40052216813430B60638BF3
:1053D80003F00403626A02F01002216813434B6071
:1053E8002268D36923F40063D36100206065012338
:1053F80084F8513010BD84F850302046FDF788FFFE
:10540800B8E7012070472DE9F04383B01F460A9D95
:1054180090F85030012B00F01081044688469146E0
:10542800012380F85030FEF7D1FB064694F851303E
:10543800DBB26268012B0AD0B2F5827F40F0E380CC
:10544800A268002A40F0E980042B40F0E880B8F117
:10545800000F00F0E680B9F1000F00F0E480002FA3
:1054680000F0E38094F85130DBB2042B02D005231E
:1054780084F8513000236365C4F83890E787A7871C
:10548800C4F83080E786A7862364636423681A68B3
:1054980012F0400F03D11A6842F040021A60E36824
:1054A800B3F5006F11D063680BB1012F0BD1226BDC
:1054B800236812781A73236B01332363E38E9BB23C
:1054C800013B9BB2E38601276BE063680BB1012FB8
:1054D8000BD1226B23681288DA60236B02332363B3
:1054E800E38E9BB2013B9BB2E38601271CE0236855
:1054F8009A6812F0010F0ED0E28F92B25AB1DA68B0
:10550800A36B1A80A36B0233A363E38F9BB2013BA7
:105518009BB2E3870127FEF759FB801BA84203D300
:10552800B5F1FF3F40F08380E38E9BB21BB9E38F58
:105538009BB2002B53D023689A6812F0020FD6D082
:10554800E28E92B2002AD2D0002FD0D0226B1288DD
:10555800DA60236B02332363E38E9BB2013B9BB279
:10556800E3860027C3E723689A6812F0010F0ED07C
:10557800E28F92B25AB1DA68A36B1A70A36B013347
:10558800A363E38F9BB2013B9BB2E3870127FEF73E
:105598001DFB831BAB4202D3B5F1FF3F49D1002D60
:1055A80049D0E38E9BB213B9E38F9BB2BBB123689A
:1055B8009A6812F0020FD6D0E28E92B2002AD2D0A8
:1055C800002FD0D0226B12781A73236B0133236318
:1055D800E38E9BB2013B9BB2E3860027C3E73246CA
:1055E80029462046FFF77CFE48B9A36863B90193B2
:1055F8002368DA6801929B680193019B04E02023E9
:105608006365012000E00220012384F85130002363
:1056180084F8503003B0BDE8F0830220F4E702209C
:10562800F2E70120F0E70120EEE70120ECE7032094
:10563800EAE70320E8E70320E6E70220EAE70000BC
:1056480030B4036A23F001030362036A4268846981
:1056580024F073040D682C4323F0020C8B6843EA92
:105668000C03104DA84203D005F58065A84205D16A
:1056780023F00803CD682B4323F00403094DA84207
:1056880003D005F58065A84205D122F440724D6922
:105698002A438D692A43426084614A6842630362EF
:1056A80030BC70470000014030B4036A23F48073B3
:1056B8000362036A4268C46924F0730C0C6844EA04
:1056C8000C0523F400738C6843EA0423114CA042B0
:1056D80003D004F58064A04206D123F40063CC68AB
:1056E80043EA042323F480630A4CA04203D004F560
:1056F8008064A04207D122F440524C6942EA041265
:105708008C6942EA04124260C5614A68C263036256
:1057180030BC70470000014030B4036A23F4805362
:105728000362036A4468C26922F4E6420D6842EAE9
:10573800052223F400538D6843EA0533094DA84236
:1057480003D005F58065A84204D124F480444D694E
:1057580044EA85144460C2614A680264036230BC4A
:10576800704700BF0000014010B4036A046A24F0C7
:1057780001040462846924F0F00C4CEA021223F05C
:105788000A030B438261036210BC704710B4046AB9
:1057980024F0100404628469036A24F4704C4CEA0F
:1057A800023223F0A00343EA01138261036210BCB2
:1057B8007047836823F070030B4343F0070383604B
:1057C8007047000090F83D30DBB2012B37D102233F
:1057D80080F83D300268D36843F00103D360036862
:1057E800194A934220D0B3F1804F1DD0A2F57C42D4
:1057F800934219D002F58062934215D002F5806277
:10580800934211D002F5784293420DD002F57052BE
:10581800934209D0A2F59432934205D01A6842F017
:1058280001021A60002070479A6802F00702062AEF
:1058380007D01A6842F001021A6000207047012060
:1058480070470020704700BF000001407047704754
:10585800704770477047704710B5044603681A6967
:1058680012F0020F11D0DA6812F0020F0DD06FF0AB
:1058780002021A610123037703689B6913F0030F7F
:1058880070D0FFF7E6FF0023237723681A6912F028
:10589800040F12D0DA6812F0040F0ED06FF0040271
:1058A8001A610223237723689B6913F4407F5FD032
:1058B8002046FFF7CEFF0023237723681A6912F0EA
:1058C800080F12D0DA6812F0080F0ED06FF0080235
:1058D8001A61042323772368DB6913F0030F4ED082
:1058E8002046FFF7B6FF0023237723681A6912F0D2
:1058F800100F12D0DA6812F0100F0ED06FF01002ED
:105908001A61082323772368DB6913F4407F3DD0AD
:105918002046FFF79EFF0023237723681A6912F0B9
:10592800010F03D0DA6812F0010F36D123681A6923
:1059380012F0800F03D0DA6812F0800F34D1236898
:105948001A6912F0400F03D0DA6812F0400F32D112
:1059580023681A6912F0200F03D0DA6812F0200FBA
:1059680030D110BDFFF774FF2046FFF773FF8AE7B9
:105978002046FFF76DFF2046FFF76CFF9BE72046A8
:10598800FFF766FF2046FFF765FFACE72046FFF705
:105998005FFF2046FFF75EFFBDE76FF001021A6167
:1059A8002046FFF754FFC1E76FF080021A612046D6
:1059B80000F0D5FAC3E76FF040021A612046FFF7FE
:1059C8004AFFC5E76FF020021A61204600F0C6FAC8
:1059D800C7E700000368304A904212D0B0F1804F08
:1059E8000FD0A2F57C4290420BD002F58062904223
:1059F80007D002F58062904203D002F578429042C7
:105A080003D123F070034A681343234A90422AD0F3
:105A1800B0F1804F27D0A2F57C42904223D002F506
:105A2800806290421FD002F5806290421BD002F53E
:105A38007842904217D002F57052904213D002F586
:105A4800806290420FD002F5806290420BD0A2F59E
:105A58009832904207D002F58062904203D002F556
:105A68008062904203D123F44073CA68134323F041
:105A780080034A69134303608B68C3620B688362BF
:105A8800054B984203D003F58063984201D10B6916
:105A980003630123436170470000014040B310B520
:105AA800044690F83D30F3B1022384F83D30214696
:105AB80051F8040BFFF78EFF012384F8463084F871
:105AC8003E3084F83F3084F8403084F8413084F820
