:020000040800F2
:10000000000002205D3800086131000863310008FB
:100010006531000867310008693100080000000000
:100020000000000000000000000000006B3100082C
:100030006D310008000000006F31000871310008C8
:10004000AD380008AD380008AD380008AD380008FC
:10005000AD380008AD380008AD380008AD380008EC
:10006000AD380008AD380008AD380008AD380008DC
:1000700079310008AD380008AD380008AD38000807
:10008000AD380008AD380008AD380008AD380008BC
:1000900089310008AD380008AD380008AD380008D7
:1000A000AD380008AD380008AD380008AD3800089C
:1000B00099310008AD310008AD380008AD380008AE
:1000C000AD380008AD380008AD380008AD3800087C
:1000D000AD380008AD380008AD380008C53100085B
:1000E000AD380008AD380008AD380008AD3800085C
:1000F000AD380008AD380008AD380008AD3800084C
:10010000AD380008AD380008D9310008AD38000816
:10011000AD380008AD380008AD380008ED310008F2
:10012000AD380008FD310008AD380008AD380008D2
:10013000AD380008AD380008AD380008AD3800080B
:10014000AD3800080D320008AD380008AD380008A1
:10015000AD380008AD380008AD3800081D32000881
:10016000AD380008AD380008AD380008AD380008DB
:10017000AD380008AD380008AD38000800000000B8
:08018000AD380008AD3800089D
:1001880010B5054C237833B9044B13B10448AFF3C9
:1001980000800123237010BDB4040020000000007B
:1001A8000079000808B5034B1BB103490348AFF3B6
:1001B800008008BD00000000B80400200079000895
:1001C80081F0004102E000BF83F0004330B54FEA00
:1001D80041044FEA430594EA050F08BF90EA020F6D
:1001E8001FBF54EA000C55EA020C7FEA645C7FEA00
:1001F800655C00F0E2804FEA5454D4EB5555B8BF23
:100208006D420CDD2C4480EA020281EA030382EA93
:10021800000083EA010180EA020281EA0303362D25
:1002280088BF30BD11F0004F4FEA01314FF4801CF8
:100238004CEA113102D0404261EB410113F0004F0A
:100248004FEA03334CEA133302D0524263EB4303C1
:1002580094EA050F00F0A780A4F10104D5F1200E5F
:100268000DDB02FA0EFC22FA05F2801841F10001BA
:1002780003FA0EF2801843FA05F359410EE0A5F18E
:1002880020050EF1200E012A03FA0EFC28BF4CF0BF
:10029800020C43FA05F3C01851EBE37101F0004575
:1002A80007D54FF0000EDCF1000C7EEB00006EEB82
:1002B8000101B1F5801F1BD3B1F5001F0CD349080C
:1002C8005FEA30004FEA3C0C04F101044FEA445263
:1002D80012F5800F80F09A80BCF1004F08BF5FEAEA
:1002E800500C50F1000041EB045141EA050130BDCA
:1002F8005FEA4C0C404141EB0101013C28BFB1F5DC
:10030800801FE9D291F0000F04BF01460020B1FA26
:1003180081F308BF2033A3F10B03B3F120020CDAF9
:100328000C3208DD02F1140CC2F10C0201FA0CF0D7
:1003380021FA02F10CE002F11402D8BFC2F1200C3C
:1003480001FA02F120FA0CFCDCBF41EA0C019040F2
:10035800E41AA2BF01EB0451294330BD6FEA04043B
:100368001F3C1CDA0C340EDC04F11404C4F1200226
:1003780020FA04F001FA02F340EA030021FA04F338
:1003880045EA030130BDC4F10C04C4F1200220FA8F
:1003980002F001FA04F340EA0300294630BD21FACD
:1003A80004F0294630BD94F0000F83F4801306BF93
:1003B80081F480110134013D4EE77FEA645C18BF87
:1003C8007FEA655C29D094EA050F08BF90EA020F1E
:1003D80005D054EA000C04BF1946104630BD91EA16
:1003E800030F1EBF0021002030BD5FEA545C05D119
:1003F8004000494128BF41F0004130BD14F5800458
:100408003CBF01F5801130BD01F0004545F0FE41CB
:1004180041F470014FF0000030BD7FEA645C1ABF00
:10042800194610467FEA655C1CBF0B46024650EA37
:10043800013406BF52EA033591EA030F41F4002163
:1004480030BD00BF90F0000F04BF0021704730B5E9
:100458004FF4806404F132044FF000054FF00001BE
:1004680050E700BF90F0000F04BF0021704730B57F
:100478004FF4806404F1320410F0004548BF404254
:100488004FF000013EE700BF42004FEAE2014FEAA9
:1004980031014FEA02701FBF12F07F4393F07F4F84
:1004A80081F06051704732F07F4208BF704793F087
:1004B8007F4F04BF41F40021704730B54FF460749A
:1004C80001F0004521F000411CE700BF50EA01029D
:1004D80008BF704730B54FF000050AE050EA010246
:1004E80008BF704730B511F0004502D5404261EBB6
:1004F80041014FF4806404F132045FEA915C3FF4F7
:10050800D8AE4FF003025FEADC0C18BF03325FEA93
:10051800DC0C18BF033202EBDC02C2F1200300FA44
:1005280003FC20FA02F001FA03FE40EA0E0021FA69
:1005380002F11444BDE600BF4FF0FF3C06E000BFE7
:100548004FF0010C02E000BF4FF0010C4DF804CD54
:100558004FEA410C7FEA6C5C4FEA430C18BF7FEA14
:100568006C5C1BD001B050EA410C0CBF52EA430C42
:1005780091EA030F02BF90EA020F0020704710F1C2
:10058800000F91EA030F58BF994208BF90422CBF51
:10059800D8176FEAE37040F0010070474FEA410C4A
:1005A8007FEA6C5C02D150EA013C07D14FEA430C68
:1005B8007FEA6C5CD6D152EA033CD3D05DF8040BD9
:1005C800704700BF8446104662468C46194663460B
:1005D80000E000BF01B5FFF7B7FF002848BF10F1E2
:1005E800000F01BD4DF808EDFFF7F4FF0CBF012027
:1005F80000205DF808FB00BF4DF808EDFFF7EAFFA3
:1006080034BF012000205DF808FB00BF4DF808ED5D
:10061800FFF7E0FF94BF012000205DF808FB00BF52
:100628004DF808EDFFF7CEFF94BF012000205DF8DC
:1006380008FB00BF4DF808EDFFF7C4FF34BF0120E9
:1006480000205DF808FB00BF4FEA4102B2F1E04329
:1006580024BFB3F5001CDCF1FE5C0DD901F0004CA1
:100668004FEAC0024CEA5070B2F1004F40EB8300F1
:1006780008BF20F00100704711F0804F21D113F11D
:100688003872BCBF01F00040704741F480114FEA56
:100698005252C2F11802C2F1200C10FA0CF320FADF
:1006A80002F018BF40F001004FEAC1234FEAD323FC
:1006B80003FA0CFC40EA0C0023FA02F34FEA430366
:1006C800CCE77FEA625307D150EA01331EBF4FF0EF
:1006D800FE4040F44000704701F0004040F0FE400A
:1006E80040F40000704700BF80F0004002E000BF07
:1006F80081F0004142001FBF5FEA410392EA030F05
:100708007FEA226C7FEA236C6AD04FEA1262D2EB4E
:100718001363C1BFD218414048404140B8BF5B4253
:10072800192B88BF704710F0004F40F4000020F0EC
:100738007F4018BF404211F0004F41F4000121F002
:100748007F4118BF494292EA030F3FD0A2F101024C
:1007580041FA03FC10EB0C00C3F1200301FA03F18A
:1007680000F0004302D5494260EB4000B0F5000FAD
:1007780013D3B0F1807F06D340084FEA310102F16C
:100788000102FE2A51D2B1F1004F40EBC25008BF1E
:1007980020F0010040EA03007047490040EB0000E8
:1007A800013A28BFB0F5000FEDD2B0FA80FCACF1E9
:1007B800080CB2EB0C0200FA0CF0AABF00EBC25016
:1007C80052421843BCBFD0401843704792F0000F04
:1007D80081F4000106BF80F400000132013BB5E757
:1007E8004FEA41037FEA226C18BF7FEA236C21D0CD
:1007F80092EA030F04D092F0000F08BF0846704732
:1008080090EA010F1CBF0020704712F07F4F04D1FF
:10081800400028BF40F00040704712F100723CBF12
:1008280000F50000704700F0004343F0FE4040F43C
:10083800000070477FEA226216BF08467FEA2363FA
:100848000146420206BF5FEA412390EA010F40F4E5
:10085800800070474FF0000304E000BF10F0004331
:1008680048BF40425FEA000C08BF704743F0964318
:1008780001464FF000001CE050EA010208BF704733
:100888004FF000030AE000BF50EA010208BF7047BA
:1008980011F0004302D5404261EB41015FEA010CCF
:1008A80002BF84460146002043F0B64308BFA3F1C7
:1008B8008053A3F50003BCFA8CF2083AA3EBC253A9
:1008C80010DB01FA02FC634400FA02FCC2F12002C8
:1008D800BCF1004F20FA02F243EB020008BF20F0FF
:1008E8000100704702F1200201FA02FCC2F1200265
:1008F80050EA4C0021FA02F243EB020008BF20EA5A
:10090800DC7070474FF0FF0C1CEAD0521EBF1CEA87
:10091800D15392EA0C0F93EA0C0F6FD01A4480EA75
:10092800010C400218BF5FEA41211ED04FF000635E
:1009380043EA501043EA5111A0FB01310CF000408A
:10094800B1F5000F3EBF490041EAD3715B0040EAB0
:10095800010062F17F02FD2A1DD8B3F1004F40EB80
:10096800C25008BF20F00100704790F0000F0CF053
:10097800004C08BF49024CEA502040EA51207F3A17
:10098800C2BFD2F1FF0340EAC250704740F40000F2
:100998004FF00003013A5DDC12F1190FDCBF00F0E3
:1009A80000407047C2F10002410021FA02F1C2F191
:1009B800200200FA02FC5FEA310040F1000053EA2D
:1009C8004C0308BF20EADC70704792F0000F00F07B
:1009D800004C02BF400010F4000F013AF9D040EA81
:1009E8000C0093F0000F01F0004C02BF490011F415
:1009F800000F013BF9D041EA0C018FE70CEAD15313
:100A080092EA0C0F18BF93EA0C0F0AD030F0004C92
:100A180018BF31F0004CD8D180EA010000F0004046
:100A2800704790F0000F17BF90F0004F084691F004
:100A3800000F91F0004F14D092EA0C0F01D142023E
:100A48000FD193EA0C0F03D14B0218BF084608D107
:100A580080EA010000F0004040F0FE4040F4000051
:100A6800704740F0FE4040F4400070474FF0FF0CE4
:100A78001CEAD0521EBF1CEAD15392EA0C0F93EA2B
:100A88000C0F69D0A2EB030280EA010C49024FEA7D
:100A9800402037D04FF0805343EA111143EA101336
:100AA8000CF000408B4238BF5B0042F17D024FF4EE
:100AB800000C8B4224BF5B1A40EA0C00B3EB510FC9
:100AC80024BFA3EB510340EA5C00B3EB910F24BFB2
:100AD800A3EB910340EA9C00B3EBD10F24BFA3EB37
:100AE800D10340EADC001B0118BF5FEA1C1CE0D1FF
:100AF800FD2A3FF650AF8B4240EBC25008BF20F0B2
:100B0800010070470CF0004C4CEA50207F32C2BF05
:100B1800D2F1FF0340EAC250704740F400004FF0A2
:100B28000003013A37E792F0000F00F0004C02BFD3
:100B3800400010F4000F013AF9D040EA0C0093F09D
:100B4800000F01F0004C02BF490011F4000F013BF7
:100B5800F9D041EA0C0195E70CEAD15392EA0C0F5F
:100B680008D142027FF47DAF93EA0C0F7FF470AF97
:100B7800084676E793EA0C0F04D14B023FF44CAFDA
:100B880008466EE730F0004C18BF31F0004CCAD16F
:100B980030F000427FF45CAF31F000437FF43CAFAB
:100BA8005FE700BF4FF0FF3C06E000BF4FF0010CCD
:100BB80002E000BF4FF0010C4DF804CD4FEA4002AF
:100BC8004FEA41037FEA226C18BF7FEA236C11D0F9
:100BD80001B052EA530C18BF90EA010F58BFB2EBAC
:100BE800030088BFC81738BF6FEAE17018BF40F02C
:100BF800010070477FEA226C02D15FEA402C05D1E0
:100C08007FEA236CE4D15FEA412CE1D05DF8040B64
:100C1800704700BF844608466146FFE70FB5FFF7F7
:100C2800C9FF002848BF10F1000F0FBD4DF808EDAF
:100C3800FFF7F4FF0CBF012000205DF808FB00BFA0
:100C48004DF808EDFFF7EAFF34BF012000205DF8FA
:100C580008FB00BF4DF808EDFFF7E0FF94BF012047
:100C680000205DF808FB00BF4DF808EDFFF7D2FF44
:100C780094BF012000205DF808FB00BF4DF808ED87
:100C8800FFF7C8FF34BF012000205DF808FB00BF54
:100C98004FEA4002B2F1FE4F0FD34FF09E03B3EB81
:100CA80012620DD94FEA002343F0004310F0004FC1
:100CB80023FA02F018BF404270474FF00000704717
:100CC80012F1610F01D1420205D110F0004008BFB6
:100CD8006FF0004070474FF00000704753B94AB9B1
:100CE800002908BF00281CBF4FF0FF314FF0FF302C
:100CF80000F074B9ADF1080C6DE904CE00F006F807
:100D0800DDF804E0DDE9022304B070472DE9F0477F
:100D1800089E0D4604468846002B4DD18A429446CB
:100D280068D9B2FA82F252B101FA02F3C2F1200193
:100D380020FA01F10CFA02FC41EA030894404FEA58
:100D48001C45210CB8FBF5FE1FFA8CF705FB1E832A
:100D580041EA03430EFB07F199420BD91CEB03034D
:100D68000EF1FF3080F01E81994240F21B81AEF1F6
:100D7800020E63445B1AA4B2B3FBF5F005FB103313
:100D880044EA034400FB07F7A7420AD91CEB040412
:100D980000F1FF3380F00881A74240F205816444E6
:100DA8000238E41B40EA0E4000211EB1D440002363
:100DB800C6E90043BDE8F0878B4208D9002E00F051
:100DC800EE800021C6E900050846BDE8F087B3FAC1
:100DD80083F100294AD1AB4202D3824200F2F98062
:100DE800841A65EB030301209846002EE2D0C6E979
:100DF8000048DFE702B9FFDEB2FA82F2002A40F0CB
:100E08009180A1EB0C054FEA1C471FFA8CFE0121CB
:100E1800B5FBF7F307FB1350250C45EA00450EFB1D
:100E280003F0A84208D91CEB050503F1FF3802D2EC
:100E3800A84200F2CB8043462D1AA4B2B5FBF7F0C6
:100E480007FB105544EA05440EFB00FEA64508D9E9
:100E58001CEB040400F1FF3502D2A64500F2BB806A
:100E68002846A4EB0E0440EA03409EE7C1F12007A0
:100E78008B4022FA07FC4CEA030C20FA07F405FA27
:100E880001F31C43FD404FEA1C4900FA01F3B5FB8E
:100E9800F9F8200C1FFA8CFE09FB185540EA0545A5
:100EA80008FB0EF0A84202FA01F20BD91CEB05056B
:100EB80008F1FF3A80F08880A84240F28580A8F1C6
:100EC800020865442D1AA4B2B5FBF9F009FB1055C8
:100ED80044EA054500FB0EFEAE4508D91CEB0505A6
:100EE80000F1FF346CD2AE456AD90238654440EA55
:100EF8000840A0FB0294A5EB0E05A542C846A646ED
:100F080056D353D05EB1B3EB080265EB0E0505FA74
:100F180007F722FA01F3CD401F43C6E90075002107
:100F2800BDE8F087C2F1200320FA03F10CFA02FCB5
:100F380025FA03F395400D434FEA1C471FFA8CFE30
:100F4800B3FBF7F107FB11302B0C43EA004301FB1D
:100F58000EF0984204FA02F408D91CEB030301F1DD
:100F6800FF382FD298422DD9023963441B1AADB2EB
:100F7800B3FBF7F007FB103345EA034500FB0EF31C
:100F8800AB4208D91CEB050500F1FF3816D2AB427D
:100F980014D902386544ED1A40EA014138E7314670
:100FA800304607E78646E5E61846FAE64B45A9D2F5
:100FB800B9EB020864EB0C0E0138A3E74046EAE7F8
:100FC800204694E74146D1E7D0467BE7023B65449B
:100FD80032E7084609E76444023842E7704700BF31
:100FE8004FEA40024FEA41037FEA226C02D15FEAEE
:100FF800402C08D17FEA236C02D15FEA412C02D150
:101008004FF0000070474FF00100704738B52C4B87
:101018001B7E012B0FD0032B11D0022B2ED0294978
:10102800294B1B680A6849682848006801F000FBDA
:1010380001F02AF938BD002001F026F9FAE7234B20
:101048001D68204B59682846FFF752FB0446204983
:10105800FFF714FE0028E2D01E492046FFF7F0FDF6
:101068000028DCD01C49164BD868FFF74BFC01461A
:101078002846FFF73FFB154B1860D0E7134B1D6858
:10108800104B59682846FFF733FB04461049FFF711
:10109800F5FD0028C3D00F492046FFF7D1FD0028F1
:1010A800BDD0074BB3F91A00FFF7D8FB0B49FFF780
:1010B80029FC01462846FFF71DFB044B1860AEE7E4
:1010C800BC050020F0040020D4040020D004002037
:1010D800DB0FC9BFDB0FC93F2EE34DBB2EE3CDB9F4
:1010E80038B5FFF705FB04460021FFF79FFD0028F0
:1010F8003ED0354B1C6800212046FFF7BFFD58B194
:101108002046FFF7C1F92CA3D3E90023FFF75CF8C9
:10111800FFF79AFA2C4B18602B4B1C6800212046CD
:10112800FFF78EFDB8B9284B1868FFF7ADF90446EC
:101138000D4623A3D3E90023FFF77CFA10B31EA3BF
:10114800D3E9002320462946FFF756FAD0B11E4BB3
:1011580000221A6016E02046FFF796F916A3D3E995
:101168000023FFF733F8FFF76FFA174B1860DAE739
:1011780016492046FFF77AFC0146134C2068FFF712
:10118800B9FA20604FF07E510F4B1868FFF776FDD3
:1011980018B10D4B4FF07E521A600D490A4B186872
:1011A800FFF74EFD10B9084B186838BD064B084AC2
:1011B8001A60F8E7AFF300807B14AE47E17A743F1A
:1011C8007B14AE47E17A74BFDC0400200000FA43C8
:1011D800000080BF0000000038B5FFF789FA044618
:1011E8000021FFF723FD00283ED0354B1C68002165
:1011F8002046FFF743FD58B12046FFF745F92CA3D9
:10120800D3E90023FEF7E0FFFFF71EFA2C4B186026
:101218002B4B1C6800212046FFF712FDB8B9284B5C
:101228001868FFF731F904460D4623A3D3E90023D4
:10123800FFF700FA10B31EA3D3E90023204629467E
:10124800FFF7DAF9D0B11E4B00221A6016E02046EB
:10125800FFF71AF916A3D3E90023FEF7B7FFFFF744
:10126800F3F9174B1860DAE716492046FFF7FEFB3B
:101278000146134C2068FFF73DFA20604FF07E517D
:101288000F4B1868FFF7FAFC18B10D4B4FF07E5260
:101298001A600D490A4B1868FFF7D2FC10B9084BC1
:1012A800186838BD064B084A1A60F8E7AFF30080A3
:1012B8007B14AE47E17A743F7B14AE47E17A74BF82
:1012C800D80400200000FA43000080BF2DE9F04157
:1012D80086B0A04B1B7E012B59D0032B64D0022B68
:1012E80000F0AC809C4B19682046FFF70BFB0546C5
:1012F8009A4B1C6831462046FFF704FB06463946E0
:101308002046FFF7FFFA044631462846FFF7F2F970
:1013180007462146FFF7EEF98046029021463846F7
:10132800FFF7E6F90746039031462846FFF7E0F94C
:1013380005462146FFF7DCF9064604902146284673
:10134800FFF7D8F904460590854D2A6841460020E4
:1013580001F0AEF8ADF800006A683946012001F0E6
:10136800A7F8ADF80200AA683146022001F0A0F8FB
:10137800ADF80400EA682146032001F099F8ADF8B9
:101388000600684600F03AFF06B0BDE8F081002389
:10139800ADF80030ADF80230ADF80430ADF80630E5
:1013A800684600F02BFFEFE76A4B5B7E012B31D0DC
:1013B800032B35D0022B95D1664B5E681D683146EC
:1013C8003046FFF79FFA044629462846FFF79AFA5F
:1013D80001462046FFF78EF905F0B8F90446314674
:1013E800284605F0B1F95F4B1968FFF781F9054602
:1013F80005F040F92146FFF785FA0646284605F02C
:101408006BF92146FFF77EFA0746574B574A1A6091
:10141800574C67E70026544B1E603446374661E751
:101428004C4B5E681F684F4B186801F093F80446F0
:101438005049FFF767FA4C4B186053E7454B93F850
:10144800233013F0200F32D04B4B01221A604A4B45
:101458001B68002B32D03F4D95F82200C0F3C00620
:10146800C0F38000FFF7F6F904463046FFF7F2F9BB
:101478002146FFF7B1FE064695F8220000F0010567
:10148800C0F34000FFF7E6F904462846FFF7E2F903
:101498002146FFF725FE0746324B186801F05AF837
:1014A80004463449FFF72EFA2F4B18601AE713F059
:1014B800100FCCD0304B00221A60C8E7254E96F8A2
:1014C8002200C0F3C005C0F38000FFF7C3F904464B
:1014D8002846FFF7BFF92146FFF77EFE054696F836
:1014E800220000F00106C0F34000FFF7B3F90446FC
:1014F8003046FFF7AFF92146FFF7F2FD04462946CB
:101508002846FFF7FFF9064621462046FFF7FAF975
:1015180001463046FFF7EEF805F018F90746294668
:10152800204605F011F90F4B1968FFF7E1F804465A
:1015380005F0A0F83946FFF7E5F90646204605F01C
:10154800CBF83946FFF7DEF90746074B074A1A601A
:10155800074CC7E6BC05002000000020040000205E
:101568002005002030050020D4040020B88658BF8C
:10157800335407C000004040080000200020704796
:1015880070B5684B1B7E012B04D0032B16D0022BA1
:1015980071D070BD0024644B1C80644E31682046B5
:1015A800FFF7ECFF054671680120FFF7E7FF0346E8
:1015B8002A462146204600F0E3FDEAE75C49594BFC
:1015C8009868FFF79FF95B4C2168FFF793F8206054
:1015D8005949FFF735FB08B1574A22605749554B1F
:1015E8001868FFF74BFB10B1524B544A1A60544B22
:1015F8005C6819684F4B1868FFF77AF8214601F0C4
:1016080099F8484BB3F92400FFF728F94FF08941BE
:10161800FFF76EF84B4B1968FFF774F905464A490E
:10162800FFF70EFB00B1484D484B19682846FFF7F5
:101638005FF801F0D9F8044600212846FFF7F6FACA
:1016480010B9394B01221A80374B1B88C3EB0312A0
:10165800C2EB421203EBC202120103EB830303EB5A
:101668008303C3EB03131B011BB212B221460020F4
:1016780000F086FD8DE72B4BB3F91C00FFF7EEF861
:101688003349FFF73FF92B4C2168FFF733F8206007
:101698002949FFF7D5FA08B1274A22602749254B7F
:1016A8001868FFF7EBFA10B1224B244A1A60244B52
:1016B8005C6819681F4B1868FFF71AF8214601F093
:1016C80039F80446174B93F82000FFF7C7F821496B
:1016D800FFF718F906461D4B1968FFF709F801F0DE
:1016E80083F8054600213046FFF7A0FA10B90E4BE3
:1016F80001221A800C4B1B88C3EB0312C2EB421267
:1017080003EBC202120103EB830303EB8303C3EB76
:1017180003131B011BB212B22946204600F030FD0C
:1017280037E700BFBC050020E40400204005002086
:10173800B4A2913AE0040020959EEBBE959EEB3E44
:10174800380500200C0000200000C8C23405002025
:101758003EC32E390000C843F0B585B004460D4697
:10176800134E00220121304603F0A4F804F07F0450
:101778008DF80E400F4C3727009701230DF10F020B
:101788000DF10E01204603F0F8FC8DF80E5000977D
:1017980001230DF10F020DF10E01204603F0EDFCBF
:1017A80001221146304603F085F805B0F0BD00BFB0
:1017B800000402405C07002070B584B00446134D55
:1017C80000220121284603F075F864F07F048DF8A3
:1017D8000E400F4C3726009601230DF10F020DF134
:1017E8000E01204603F0C9FC009601230DF10F02FB
:1017F8000DF10E01204603F0C0FC012211462846D7
:1018080003F058F89DF80F0004B070BD00040240C2
:101818005C07002030B585B0054600220121144838
:1018280003F048F882238DF80E3037230093012304
:101838000DF10F020DF10E010E4803F09EFC062477
:101848000CE0C4F106023723009301232A440DF16A
:101858000E01084803F091FC013CE4B2002CF0D1E1
:1018680001221146024803F025F805B030BD00BF3B
:10187800000402405C070020F0B585B004460D4620
:10188800134E00221021304603F014F804F07F04B0
:101898008DF80E400F4C3727009701230DF10F02EA
:1018A8000DF10E01204603F068FC8DF80E500097EC
:1018B80001230DF10F020DF10E01204603F05DFC2E
:1018C80001221021304602F0F5FF05B0F0BD00BF3F
:1018D800000002405C07002070B584B00446194E31
:1018E80000221021304602F0E5FF64F07F048DF8F5
:1018F8000E40154C3725009501230DF10F020DF10F
:101908000E01204603F039FC55238DF80E30009562
:1019180001230DF10F020DF10E01204603F02DFCFD
:10192800009501230DF10F020DF10E01204603F081
:1019380024FC01221021304602F0BCFF9DF80F0064
:1019480004B070BD000002405C07002070B584B090
:10195800054600221021194802F0ACFF92238DF8A9
:101968000E30174C3726009601230DF10F020DF1AA
:101978000E01204603F001FC009601230DF10F0231
:101988000DF10E01204603F0F8FB06240CE0C4F12B
:1019980006023723009301232A440DF10E0108485B
:1019A80003F0EBFB013CE4B2002CF0D10122102142
:1019B800024802F07FFF04B070BD00BF0000024083
:1019C8005C07002010B584B002A8FFF723FF9DF83C
:1019D80009309DF8080040EA032000B2FEF73EFFF8
:1019E8002E49FFF743F82E49FEF78CFF2D4CE06097
:1019F8009DF80B309DF80A0040EA032000B2FEF77C
:101A08002DFF2649FFF732F82549FEF77BFF2061B5
:101A18009DF80D309DF80C0040EA032000B2FEF757
:101A28001DFF1E49FFF722F81F49FEF761FE1C49FA
:101A3800FEF768FF60616846FFF788FF9DF8013090
:101A48009DF8000040EA032000B2FEF707FF17499F
:101A5800FFF70CF81649FEF74DFE20609DF803309D
:101A68009DF8020040EA032000B2FEF7F7FE0F4996
:101A7800FEF7FCFF0F49FEF73BFE60609DF805305E
:101A88009DF8040040EA032000B2FEF7E7FE07498C
:101A9800FEF7ECFFA06004B010BD00BF6F12034258
:101AA80035FA8E3CF8040020E17A943EABAA2A4627
:101AB800FA27383C9626253A10B44FF0E0235C69A3
:101AC8004FF0A80C0CFB00FC9B69002104E0E01A15
:101AD80002441144614509D21A464FF0E0239B693C
:101AE8009A42FAD0F3D9D21A1144F3E710BC7047DE
:101AF800F0B585B0224A01AB07CA03C31A70B621F4
:101B08001420FFF729FE642001F020FF0020FFF7D2
:101B180053FE1C4C20709620FFF7CEFF23780F2B26
:101B28002BD10024022C25D804EB440310336B443A
:101B380013F80C6C13F80B5C29463046FFF70CFEC3
:101B48009620FFF7B9FF3046FFF736FE0D4E30708E
:101B58009620FFF7B1FF33789D4202D10134E4B2F9
:101B6800E0E704EB440707F110030DEB030717F850
:101B78000A0C00E0002005B0F0BDFF20FBE700BF25
:101B8800187900081D050020F0B585B0264B93E8AC
:101B9800070004AB03E90700B6217E20FFF76CFEBF
:101BA800642001F0D3FE00217C20FFF765FE96201B
:101BB800FFF782FF0020FFF78FFE1C4C2070962055
:101BC800FFF77AFF23781E2B2BD10024032C25D86E
:101BD80004EB440310336B4413F80C6C13F80B5CE0
:101BE80029463046FFF748FE9620FFF765FF304646
:101BF800FFF772FE0D4E30709620FFF75DFF3378C9
:101C08009D4202D10134E4B2E0E704EB440707F156
:101C180010030DEB030717F80A0C00E0002005B0CD
:101C2800F0BDFF20FBE700BF247900081C05002059
:101C380010B5FFF75DFF0446FFF7A6FF204310F03D
:101C4800FF0404D1054803F077FC204610BD0122AB
:101C58004FF48051024802F02DFEF6E78C08002070
:101C6800001C024010B504464FF07C51FEF74AFEB6
:101C780001462346094CA4EB63042046FEF742FEC6
:101C880001462046FEF73EFE01464FF07F50FEF724
:101C98002FFD01462046FEF735FE10BDDF59375FA0
:101CA8002DE9F04F85B004460E4615460093DDF841
:101CB80038A0DDF83C90DDF8408000215046FEF762
:101CC800B5FF58B100214846FEF7B0FF30B10021FA
:101CD8004046FEF7ABFF002840F0AC805146504626
:101CE800FEF710FE074649464846FEF70BFE01463A
:101CF8003846FEF7FFFC074641464046FEF702FE1F
:101D080001463846FEF7F6FCFFF7ACFF07460146EA
:101D18005046FEF7F7FD019039464846FEF7F2FDBA
:101D2800029039464046FEF7EDFD0390D4F8048052
:101D3800D4F80C9049464046FEF7E4FD0746D4F82F
:101D480000A0D4F808B059465046FEF7DBFD01461E
:101D58003846FEF7CDFC074651464046FEF7D2FD11
:101D6800804659464846FEF7CDFD01464046FEF7F7
:101D7800C1FC804651465046FEF7C4FD4FF07C51E9
:101D8800FEF7B6FC824649464846FEF7BBFD0146CB
:101D98005046FEF7AFFC814601460298FEF7B2FDB9
:101DA80082464146DDF80CB05846FEF7ABFD0146C9
:101DB8005046FEF79DFC824639465846FEF7A2FD7E
:101DC800834649460198FEF79DFD01465846FEF7B1
:101DD8008FFC814641460198FEF794FD80463946BE
:101DE8000298FEF78FFD01464046FEF781FC074644
:101DF8000023724A1360724A1360724A1360724970
:101E08005046FEF77FFD01463046FEF773FC064656
:101E18006D494846FEF776FD01462846FEF76AFCFE
:101E2800054669493846FEF76DFD01460098FEF7FC
:101E380061FC009065493046FEF764FD80466349C1
:101E48002846FEF75FFD064660490098FEF75AFDF2
:101E58000746D4F800B0D4F804A0D4F808900AF1E2
:101E68000040CDF800804146FEF74CFD0546494646
:101E78003046FEF747FD01462846FEF739FC054681
:101E8800D4F80C8039464046FEF73CFD014628460A
:101E9800FEF72EFC5946FEF72DFC019020605946AE
:101EA8000098FEF72FFD054649463846FEF72AFDFD
:101EB80001462846FEF71EFC054631464046FEF719
:101EC80021FD01462846FEF713FC5146FEF712FC99
:101ED8000290606059463046FEF714FD05465146AB
:101EE8003846FEF70FFD01462846FEF701FC054679
:101EF80000994046FEF706FD01462846FEF7FAFB24
:101F08004946FEF7F7FB0546A06059463846FEF7F6
:101F1800F9FC074651463046FEF7F4FC01463846C0
:101F2800FEF7E8FB064649460098FEF7EBFC01463B
:101F38003046FEF7DDFB01464046FEF7DBFB064672
:101F4800E060DDF8048041464046FEF7DBFC0746CA
:101F5800DDF8089049464846FEF7D4FC0146384665
:101F6800FEF7C8FB074629462846FEF7CBFC014684
:101F78003846FEF7BFFB074631463046FEF7C2FC3F
:101F880001463846FEF7B6FBFFF76CFE07460146EA
:101F98004046FEF7B7FC206039464846FEF7B2FCDB
:101FA800606039462846FEF7ADFCA06039463046E9
:101FB800FEF7A8FCE06005B0BDE8F08F1005002032
:101FC80014050020180500209A99193F6F12033A4A
:101FD800F0B585B0FFF7F6FC36490A694B694868E1
:101FE8008D6803F1004302F10042334C05F10045CE
:101FF800029500F10040019008680090C9682046E9
:10200800FFF74EFE2568E1682846FEF77BFC074689
:102018006668A1683046FEF775FC01463846FEF74B
:1020280069FB044629462846FEF76CFC05463146FE
:102038003046FEF767FC01462846FEF75BFB014683
:10204800FEF758FB4FF07E51FEF752FB054621463E
:102058002046FEF74FFB294604F076FB0446174B53
:102068001968FEF745FB05461549FEF7E9FD18B165
:10207800144A13680133136013492846FEF7FEFD1E
:1020880018B1104A1368013B13600C4B1C600D4BD0
:102098001868FEF7E3FB0D49FEF734FC2146FEF70E
:1020A80029FB0B4A5060034B5B6903F10043136043
:1020B80005B0F0BDF804002010000020EC0400205A
:1020C800DB0F49C0E8040020DB0F4940DB0FC940A3
:1020D800F004002030B58BB000230493012207924E
:1020E800059306930993089200930193029303932F
:1020F80069461D4801F0E4FC20BB012304930E232C
:10210800059309936946194801F0DAFC18BB164D86
:10211800284601F073FD154C204601F06FFD0221A1
:10212800284601F0C2FE1021204601F0BEFE1048EC
:1021380003F002FA0F4803F0FFF90F4803F0FCF927
:102148000BB030BD01224FF480510C4802F0B2FBB5
:1021580000F0DAFED1E701224FF48051074802F07F
:10216800A9FB00F0D1FED2E70007002028070020D5
:10217800B4070020FC070020D4080020001C0240FF
:1021880000B58BB0C0F3072C8DF820C08DF8210066
:10219800C1F307208DF822008DF82310C2F3072120
:1021A8008DF824108DF82520C3F307228DF82620FA
:1021B8008DF8273000230293039304930593069325
:1021C800079340F2FF130293082306930423019315
:1021D8006B4408AA02A9074801F03EFD10B90BB0EC
:1021E8005DF804FB01224FF48051034802F062FBC2
:1021F800F5E700BF00070020001C024000B58BB0C7
:10220800B0F9003090F901208DF820208DF82130A8
:10221800B0F9023090F903208DF822208DF8233090
:10222800B0F9043090F905208DF824208DF8253078
:10223800B0F9063090F907208DF826208DF8273060
:1022480000230293039304930593069307934FF493
:1022580000730293082306930123019301AB08AA94
:1022680002A9074801F0F8FC10B90BB05DF804FBAF
:1022780001224FF48051034802F01CFBF5E700BF30
:1022880028070020001C024000B589B0C0F30723CE
:102298008DF81C308DF81D000023019302930393E1
:1022A80004930593069340F2FF13019302230593C9
:1022B80000936B4607AA01A9064801F0CDFC10B9A6
:1022C80009B05DF804FB01224FF48051024802F086
:1022D800F1FAF5E728070020001C024070B58AB023
:1022E80004463C4B984205D00221204601F0DDFD12
:1022F8000AB070BD01AB03AA002101F02BFD002834
:10230800F2D1039B40F20522934219D040F20622F3
:10231800934239D040F20722934244D0B3F5027F6A
:1023280050D19DF806301B021BB29DF807001843D8
:10233800FEF794FA2849FEF7E5FA284B5860D3E7E8
:102348009DF80400000200B29DF8053018439DF87E
:1023580006502D022DB29DF807301D4341F27073CF
:10236800984202DDA0F5005000B2FEF777FA1C494A
:10237800FEF7C8FA1B4E30602846FEF76FFA16497A
:10238800FEF7C0FA7060AFE79DF806301B021BB27B
:102398009DF807001843FEF761FA0F49FEF7B2FAF5
:1023A800114B1860A0E79DF806301B021BB29DF880
:1023B80007001843FEF752FA0749FEF7A3FA074B3E
:1023C800186091E701224FF48051084802F072FA30
:1023D8008AE700BF000700205077D63D400500205F
:1023E800DB0F493A3805002034050020001C024064
:1023F80030B58BB00446284B984205D010212046B2
:1024080001F053FD0BB030BD01AB03AA012101F06F
:10241800A1FC0028F2D1039B40F20522934213D07D
:10242800A3F20125032D2BD89DF806301B021BB201
:102438009DF807001843FEF711FA1849FEF762FAEB
:10244800174B43F82500D9E79DF804301B021BB24F
:102458009DF8052013439BB2A3F52A7000B2B0F58E
:10246800805F03DDA3F50A53283B18B2FEF7F6F99F
:1024780000F100400B49FEF745FA0B4B1860BDE729
:1024880040F211229342B9D001224FF480510748FB
:1024980002F010FAB2E700BF280700205077D63DB7
:1024A80020050020DB0F493A30050020001C0240BF
:1024B80070B50446C3B2032B3ED808461146FEF752
:1024C80017F905461D4E56F82410FEF713F946F87D
:1024D80024001B49FEF7C8FB10B1194A46F824200E
:1024E8001849164B53F82400FEF7B4FB18B1134BE8
:1024F800144A43F82420144E29463068FEF702FA9D
:10250800054671680D4B53F82400FEF7FBF90146A8
:102518002846FEF7EFF804460C49FEF7AFFB00B17A
:102528000A4C0B492046FEF78BFB00B1084C2046AD
:10253800FEF7AEFB00B270BD0020FCE75805002096
:1025480000B8084700B808C72000002000B07E4641
:1025580000B07EC670B50446104E3168FEF7C8F864
:10256800054634600E4E21463068FEF7CBF9044626
:102578002946B068FEF7C6F901462046FEF7BAF8C4
:1025880004460849FEF77AFB00B1064C0649204686
:10259800FEF756FB00B1044C204670BD70050020C4
:1025A8002C00002000004040000040C038B5FEF775
:1025B8009FF80446184D2968FEF79CF828601749CB
:1025C800FEF75CFB08B1154A2A601549124B1868DA
:1025D800FEF736FB10B1104B114A1A60114D214617
:1025E8002868FEF78FF904460B4B19686868FEF7F0
:1025F80089F901462046FEF77DF804460A49FEF7A8
:102608003DFB00B1084C09492046FEF719FB00B113
:10261800064C204638BD00BF540500200000F0419C
:102628000000F0C1680000200020CB460020CBC687
:102638002DE9F04115461E46FEF75AF80446DFF824
:102648006480D8F80010FEF753F80746C8F8004031
:10265800DFF854802146D8F80000FEF753F9044605
:102668003946D8F80800FEF74DF901462046FEF72E
:1026780041F804460D49FEF701FB00B10B4C0C492B
:102688002046FEF7DDFA00B1094C31462046FEF738
:1026980031F82946FFF78AFFFEF7FAFA00B2BDE8DB
:1026A800F08100BF6C0500205C000020D253FB4184
:1026B800D253FBC138B50446184D2968FEF71AF8FD
:1026C80028601749FEF7DAFA08B1154A2A60154951
:1026D800124B1868FEF7B4FA10B1104B114A1A6081
:1026E800114D21462868FEF70DF904460B4B196871
:1026F8006868FEF707F901462046FDF7FBFF044628
:102708000A49FEF7BBFA00B1084C09492046FEF712
:1027180097FA00B1064C204638BD00BF4C05002092
:1027280000002041000020C1500000200020CB46BE
:102738000020CBC6F8B504460D46254E3168FDF796
:10274800D9FF30604FF07A51FEF78EFA10B14FF092
:102758007A5232601F491E4B1868FEF77BFA10B197
:102768001B4B1C4A1A601C4E31682046FDF7C0FFFF
:1027780007463460194E21463068FEF7C3F8044610
:10278800134B19687068FEF7BDF801462046FDF73F
:10279800B1FF04463946B068FEF7B4F80146204652
:1027A800FDF7A8FF04460E49FEF768FA00B10C4C85
:1027B8000C492046FEF744FA00B10A4C2946204647
:1027C800FDF796FFFFF776FFFEF762FA00B2F8BD55
:1027D80050050020000080BE68050020440000204D
:1027E800D253FB41D253FBC138B50446194D296871
:1027F800FDF780FF28601849FEF740FA08B1164A2D
:102808002A601649134B1868FEF71AFA10B1114BD3
:10281800124A1A60124D21462868FEF773F80446DA
:102828000C4B19686868FEF76DF801462046FDF7FD
:1028380061FF04460B49FEF721FA00B1094C0A4929
:102848002046FEF7FDF900B1074C2046FEF720FAB6
:1028580000B238BD4805002000009643000096C32A
:102868003800002000401C4600401CC61B490B686D
:10287800DA6842F01002DA605A6942F040025A619E
:102888008B6B1A68136823F00103136003E01A685E
:1028980022F001021A60114B9B6B1B681A6812F038
:1028A800010FF4D10E4A9A600C4B9A6B11680D4ACD
:1028B800CA60996B096824320A619A6B12682421EC
:1028C80051609A6B11680A6842F480220A609B6B17
:1028D8001A68136843F0010313607047200A002048
:1028E80004480040740500202DE9F04105460C46D7
:1028F800434802F01AF801F023F8424B1860237895
:1029080053B9627842B9A27832B9E27822B9227909
:1029180012B96279002A70D0607843EA0023C3F3C1
:102928000A032B826778A078FF0847EA4017C7F3A5
:102938000A076F82A678E278B60946EA8206207905
:1029480046EA8026C6F30A06AE82207994F8058006
:10295800400840EAC810C0F30A08A5F81680A3F595
:10296800806000B22882FDF779FF2749FEF77EF8DC
:10297800E860A7F5806000B26882FDF76FFF224922
:10298800FEF774F8A860A6F5806000B2A882FDF78B
:1029980065FF1D49FEF76AF86860A8F5806000B217
:1029A800E882FDF75BFF1849FEF760F82860637955
:1029B8009B092B766379C3F301136B76A379E279CC
:1029C80043EA02236B83237A627A43EA0223AB83C6
:1029D800A37AE27A43EA0223EB83237B85F820304B
:1029E800637B85F82130A37BE27B43EA02236B8477
:1029F800237C627C43EA0223AB84BDE8F08100BFFC
:102A080050070020E405002000002544384B1B68CF
:102A18001A6812F0100F6AD000B583B00022019234
:102A28001A6801925B680193019B314B9B6B1B6891
:102A38001A6812F4002F2ED11A6822F001021A60C7
:102A480003E01A6822F001021A60294B9B6B1B688D
:102A58001A6812F0010FF4D15A68C2F1240292B236
:102A680024490A802421596021498B6B186803681E
:102A780043F4002303608B6B19680B6843F0010370
:102A88000B60122A02D003B05DF804FB1A491B48F8
:102A9800FFF72AFFF7E71A6822F001021A6003E03D
:102AA8001A6822F001021A60114B9B6B1B681A68A6
:102AB80012F0010FF4D15A68C2F1240292B20D4902
:102AC8000A80242159600A498B6B1868036823F42B
:102AD800002303608B6B19680B6843F001030B60DC
:102AE800122AD0D106490548FFF7FEFECBE770470A
:102AF800200A0020E805002074050020BC050020FD
:102B08009805002008B507220249034803F0AAFCEB
:102B180008BD00BFF4050020640A002008B5174B63
:102B2800834200D008BD164B1B781BB1154B1B7890
:102B3800A52B08D0124B01221A70072211490F4801
:102B480003F090FCEEE70F4B5A78997842EA01229D
:102B58000D494A80D87808701879487058799B7957
:102B680040EA03238B80064B00211970023292B28F
:102B78000649024803F076FCD4E700BF640A002047
:102B880074000020F4050020EC050020FC0500205E
:102B980008B50D480D4B0360032343600023836091
:102BA800C3604FF4102202614FF4001242610376B1
:102BB80043768376C3760377437700F0DBFE00B96C
:102BC80008BD00F0A1F9FBE7000700200064004001
:102BD80008B50D480D4B0360032343600023836051
:102BE800C3604FF4102202614FF400124261037671
:102BF80043768376C3760377437700F0BBFE00B94C
:102C080008BD00F081F9FBE72807002000680040B4
:102C180010B58AB000230593069307930893099388
:102C280003683D4A934204D03C4A934234D00AB0E8
:102C380010BD3B4A136801331360012B1FD00024D9
:102C48000194384B1A6B42F008021A631B6B03F0AD
:102C580008030193019B032305930222069208931C
:102C68000923099305A9304801F032FD22460121C4
:102C7800142001F06FFA142001F0A4FAD7E700231A
:102C88000093284B1A6C42F000721A641B6C03F014
:102C980000730093009BD2E700230293214B1A6C28
:102CA80042F080621A641B6C03F080630293029BFB
:102CB8001B4A136801331360012B20D000240494AD
:102CC800184B1A6B42F002021A631B6B03F00203E3
:102CD8000493049B6023059302230693032308931C
:102CE8000923099305A9114801F0F2FC22460121A4
:102CF800412001F02FFA412001F064FA97E7002300
:102D08000393084B1A6C42F000721A641B6C03F0B0
:102D180000730393039BD1E7006400400068004000
:102D2800FC06002000380240000C0240000402406B
:102D380010B582B000240094124B1A6B42F40012B2
:102D48001A631A6B02F400120092009A01941A6B2B
:102D580042F480021A631B6B03F480030193019B06
:102D6800224621460C2001F0F5F90C2001F02AFA40
:102D780022462146392001F0EDF9392001F022FAE6
:102D880002B010BD003802402DE9F0438DB0002498
:102D98000794089409940A940B940194414B1A6B74
:102DA80042F002021A631A6B02F002020192019ABF
:102DB80002941A6B42F040021A631A6B02F0400246
:102DC8000292029A03941A6B42F001021A631A6B78
:102DD80002F001020392039A04941A6B42F008026B
:102DE8001A631A6B02F008020492049A05941A6B8B
:102DF80042F004021A631A6B02F004020592059A63
:102E080006941A6B42F080021A631B6B03F080036E
:102E18000693069BDFF8909001224FF48071484694
:102E280001F048FD214F22464FF4E051384601F0A9
:102E380041FDDFF87C8001221021404601F03AFD77
:102E48001C4E01221146304601F034FD4FF48073C8
:102E580007930125089509950A9407A9484601F0A2
:102E680037FC4FF4E05307930895022309930A941B
:102E780007A9384601F02CFC1023079308950994FC
:102E880003270A9707A9404601F022FC07950895F1
:102E980009940A9707A9304601F01AFC0DB0BDE85D
:102EA800F08300BF0038024000080240001C0240C6
:102EB800000002400004024008B50748074B0360C1
:102EC8000323436040F2E733836001F002FD00B959
:102ED80008BD00F019F8FBE750070020003000405B
:102EE80010B5084C0821204602F02AFE23684FF44A
:102EF800FA72DA63642000F029FD23680022DA639D
:102F080010BD00BF4408002072B6FEE700B595B0BA
:102F18003022002108A803F0EBFA0023039304935E
:102F28000593069307930193214A116C41F0805150
:102F38001164126C02F080520192019A02931D4BA7
:102F48001A6842F480421A601B6803F480430293B3
:102F5800029B092308934FF48033099301230D93AF
:102F680002230E934FF480020F9206221092A82299
:102F7800119212930423139308A801F0DDFC98B969
:102F88000F23039302230493002305934FF4A053C4
:102F980006934FF480530793052103A801F01AFF05
:102FA80020B915B05DF804FBFFF7AEFFFFF7ACFFE3
:102FB800003802400070004008B500F09BFCFFF7A5
:102FC800A5FFFFF7E1FEFFF7B3FE00F02DF900F0D3
:102FD80061F900F0A1FA00F095F900F0CBF900F0E2
:102FE800F3FA00F00BFB00F025FB00F029F8FFF7DF
:102FF800CFFDFFF7EDFDFFF75FFFFFF783FDFFF75D
:103008006FFFFFF733FC4FF47A7000F09FFCFEF778
:103018000FFEFFF75FF84FF4FA7000F097FC4FF4DB
:103028000061054801F04CFC01224FF4807103480F
:1030380001F040FCEFE700BF001C0240000802401E
:1030480008B50F480F4B03604FF4827343600023A9
:103058008360C36002220261012242614FF4007260
:1030680082611822C2610362436283620A23C362D7
:1030780002F024F800B908BDFFF746FFFBE700BFE0
:103088005C07002000300140F0B589B000230393AD
:10309800049305930693079302681E4B9A4201D046
:1030A80009B0F0BD0024009403F584335A6C42F44F
:1030B80080525A645A6C02F480520092009A019429
:1030C8001A6B42F002021A631A6B02F002020192B2
:1030D800019A02941A6B42F001021A631B6B03F007
:1030E80001030293029B18230393022704970326E4
:1030F80006960525079503A9074801F0E9FA8023F4
:103108000393049705940696079503A9034801F0CD
:10311800DFFAC5E700300140000402400000024029
:1031280082B0002100910B4B5A6C42F480425A64E1
:103138005A6C02F480420092009A01911A6C42F093
:1031480080521A641B6C03F080530193019B02B0F8
:10315800704700BF00380240FEE7FEE7FEE7FEE7E3
:10316800FEE770477047704708B500F0DDFB08BD03
:1031780008B5024801F0BEF908BD00BF1C090020CF
:1031880008B5024800F0AEFE08BD00BF00070020E9
:1031980008B5FEF7F5F9024802F018FA08BD00BFB5
:1031A800B407002008B5FDF731FFFEF78FF8024895
:1031B80002F00CFA08BD00BFFC07002008B5FFF7B5
:1031C80025FC024802F062FF08BD00BF200A00206B
:1031D80008B5FEF7FDFE024802F0F8F908BD00BF89
:1031E8008C08002008B5024802F0F0F908BD00BFBD
:1031F800D408002008B5024801F07CF908BD00BFDA
:103208007C09002008B5024800F06CFE08BD00BF2C
:103218002807002008B5024802F038FF08BD00BFA3
:10322800640A00207047000000B587B000230293AD
:103238000393049305930093019315484FF080423C
:10324800026053224260836040F2E732C260036149
:10325800836102F0DDFA90B94FF48053029302A91A
:103268000B4802F0DFFB68B900230093019369461D
:10327800074802F0E7FC40B907B05DF804FBFFF728
:1032880043FEE9E7FFF740FEEEE7FFF73DFEF3E711
:10329800B407002000B587B000230293039304937A
:1032A8000593009301931548154A02605322426022
:1032B800836040F2E732C2600361836102F0A8FADA
:1032C80090B94FF48053029302A90C4802F0AAFB6C
:1032D80068B90023009301936946084802F0B2FCDC
:1032E80040B907B05DF804FBFFF70EFEE9E7FFF70A
:1032F8000BFEEEE7FFF708FEF3E700BFFC07002030
:103308000004004000B587B00023029303930493A0
:103318000593009301931548154A026053224260B1
:10332800836040F2E732C2600361836102F070FAA1
:1033380090B94FF48053029302A90C4802F072FB33
:1033480068B90023009301936946084802F07AFCA3
:1033580040B907B05DF804FBFFF7D6FDE9E7FFF7D2
:10336800D3FDEEE7FFF7D0FDF3E700BF8C080020A0
:10337800000C004000B583B00023009301930F4870
:103388000F4A026042F2CF024260836040F2CF727D
:10339800C260836102F03CFA50B9002300930193A4
:1033A8006946064802F04EFC28B903B05DF804FBF4
:1033B800FFF7AAFDF1E7FFF7A7FDF6E7D40800201D
:1033C8000014004000B587B00368B3F1804F0ED0F9
:1033D800364A934220D0364A934231D0354A9342F6
:1033E8003BD0354A93424CD007B05DF804FB00222D
:1033F800019203F50E33196C41F0010119641B6C3D
:1034080003F001030193019B01211C2000F0A2FE9F
:103418001C2000F0D7FEE7E700220292274B196C28
:1034280041F0020119641B6C03F002030293029B32
:1034380001211D2000F08EFE1D2000F0C3FED3E701
:10344800002303931D4B1A6C42F004021A641B6C90
:1034580003F004030393039BC6E700220492174B6F
:10346800196C41F0080119641B6C03F008030493FC
:10347800049B0121322000F06DFE322000F0A2FEF4
:10348800B2E7002205920D4B196C41F02001196436
:103498001B6C03F020030593059B0321372000F0E4
:1034A80059FE372000F08EFE9EE700BF0004004062
:1034B80000080040000C00400014004000380240A2
:1034C80000B587B0002301930293039304930593F7
:1034D80002680E4B9A4202D007B05DF804FB002345
:1034E80000930B4B1A6B42F008021A631B6B03F034
:1034F80008030093009B4FF4804301930223029337
:10350800059301A9034801F0E3F8E5E70008004046
:1035180000380240000C024000B58FB000230A9327
:103528000B930C930D9308930993019302930393C0
:1035380004930593069307932148224A0260532275
:103548004260836040F2E732C2600361836102F047
:103558005FF928BB4FF480530A930AA9184802F070
:1035680061FA00BB164802F07FF9F8B90023089306
:10357800099308A9124802F065FBD0B960230193AA
:103588000023029303930593082201A90C4802F033
:10359800CFF988B90A48FFF793FF0FB05DF804FB2D
:1035A800FFF7B2FCD6E7FFF7AFFCDBE7FFF7ACFCB1
:1035B800DCE7FFF7A9FCE1E7FFF7A6FCEAE700BFB5
:1035C800440800200008004008B50A480A4B036078
:1035D8004FF4E133436000238360C36003610C222E
:1035E80042618361C36102F06BFC00B908BDFFF75B
:1035F8008BFCFBE7DC0900200010014008B50A48F5
:103608000A4B03600A4B436000238360C360036175
:103618000C2242618361C36102F052FC00B908BD0B
:10362800FFF772FCFBE700BF200A002000480040BB
:10363800A086010008B50A480A4B03604FF4E1333D
:10364800436000238360C36003610C22426183618D
:10365800C36102F035FC00B908BDFFF755FCFBE774
:10366800640A002000140140F0B58DB000230793D0
:10367800089309930A930B9303686A4A934209D003
:103688000446694A93423DD0684A934200F08380D9
:103698000DB0F0BD00240094654B5A6C42F0100246
:1036A8005A645A6C02F010020092009A01941A6B44
:1036B80042F002021A631A6B02F002020192019AA6
:1036C80002941A6B42F001021A631B6B03F00103A8
:1036D8000293029B802307930227089703260A96E2
:1036E80007250B9507A9534800F0F2FF4FF4007324
:1036F8000793089709940A960B9507A94E4800F076
:10370800E7FFC5E700250395494B1A6C42F4802270
:103718001A641A6C02F480220392039A04951A6BB5
:1037280042F004021A631B6B03F004030493049B26
:103738004FF4406307930223089303230A93072354
:103748000B9307A93D4800F0C3FF3D483D4B03607C
:103758004FF0006343608560C5604FF48063036188
:10376800456185614FF48073C3614FF44033036250
:10377800456200F0C7FD58B9314BA3639C63002232
:103788001146272000F0E6FC272000F01BFD7FE70C
:10379800FFF7BAFBF0E700250595254B5A6C42F078
:1037A80020025A645A6C02F020020592059A069586
:1037B8001A6B42F040021A631B6B03F04003069336
:1037C800069B4FF4844307930223089303230A9329
:1037D80008230B9307A91C4800F07AFF1B481C4BD1
:1037E80003604FF0206343608560C5604FF48063D9
:1037F800036145618561C5614FF4403303624562E9
:1038080000F080FD58B9114BA3639C630022114658
:10381800472000F09FFC472000F0D4FC38E7FFF772
:1038280073FBF0E70010014000480040001401401D
:103838000038024000040240000002400008024034
:103848001C09002028600240001802407C09002062
:1038580028640240DFF834D00D480E490E4A002390
:1038680002E0D458C4500433C4188C42F9D30B4A2C
:103878000B4C002301E013600432A242FBD3FFF794
:10388800D1FC02F011FEFFF797FB70470000022001
:1038980000000020B4040020707D0008B40400205B
:1038A800B00A0020FEE7000010B504460E4B187859
:1038B8004FF47A73B3FBF0F30C4A1068B0FBF3F0E3
:1038C80000F08EFC68B90F2C01D901200AE0002213
:1038D80021464FF0FF3000F03DFC054B1C600020F6
:1038E80000E0012010BD00BF7C000020780000200F
:1038F8008000002008B50B4B1A6842F400721A6069
:103908001A6842F480621A601A6842F480721A6077
:10391800032000F00DFC0F20FFF7C6FFFFF700FCA7
:10392800002008BD003C0240034A1168034B1B7885
:103938000B441360704700BFA80A00207C000020D9
:10394800014B1868704700BFA80A002038B5044624
:10395800FFF7F6FF0546B4F1FF3F02D0044B1B7892
:103968001C44FFF7EDFF401BA042FAD338BD00BF4F
:103978007C000020002800F0A18038B5044690F8AB
:103988002030D3B12268136843F001031360FFF7B6
:10399800D7FF054623685A6812F0010F10D1FFF7C8
:1039A800CFFF401B0A28F5D9636A43F400336362EA
:1039B800052384F82030012038BDFFF729F9E1E715
:1039C8001A6822F002021A60FFF7BAFF0546236858
:1039D8005A6812F0020F0DD0FFF7B2FF401B0A28F9
:1039E800F5D9636A43F400336362052384F8203011
:1039F8000120E1E7227E012A3DD01A6822F08002E8
:103A08001A60637E012B3BD02268136823F04003C1
:103A18001360A37E012B39D02268136823F020039A
:103A28001360E37E012B37D02268136843F010033C
:103A38001360237F012B35D02268136823F0080315
:103A48001360637F012B33D02268136823F00403CB
:103A58001360A368E268134322691343626913433E
:103A68006268013A21681343CB6100206062012338
:103A780084F82030A0E71A6842F080021A60C0E794
:103A88002268136843F040031360C2E72268136892
:103A980043F020031360C4E72268136823F010037F
:103AA8001360C6E72268136843F008031360C8E789
:103AB8002268136843F004031360CAE701207047C3
:103AC80090F82030013BDBB2012B05D9436A43F45F
:103AD800802343620120704710B5474BD3F800227A
:103AE80042F00102C3F80022D3F8002222F47C52EB
:103AF800C3F80022D3F80022486A42EA0022C3F839
:103B080000224A6902F01F02012000FA02F2D3F8EB
:103B18001C026FEA020C20EA0200C3F81C02CB69FF
:103B2800CBB9354BD3F80C020CEA0000C3F80C02F1
:103B38008C884869D1F80CE044EA0E44483043F8D0
:103B480030408C68088840EA04404C6904F1480E0B
:103B580003EBCE035860CB69012B1ED08B69002B79
:103B680035D12548D0F804320CEA0303C0F80432F2
:103B78000B699BBB2048D0F814320CEA0303C0F849
:103B880014320B6A012B30D01B4AD2F8003223F0D2
:103B98000103C2F80032002010BD174BD3F80C0205
:103BA8001043C3F80C028C884869D1F800E044EA55
:103BB8000E44483043F8304088894C69D1F808E011
:103BC80040EA0E40483403EBC4035860C6E70A488D
:103BD800D0F804321343C0F80432C9E70648D0F8D5
:103BE80014321343C0F81432CBE70349D1F81C321E
:103BF8001A43C1F81C22C7E70064004070B50446A8
:103C080090F82050EDB2012D06D0436A43F400230A
:103C180043620125284670BD022380F820300268DF
:103C2800136823F001031360FFF78AFE0646236832
:103C38005B6813F0010F0CD0FFF782FE831B0A2B81
:103C4800F5D9636A43F400336362052384F82030AE
:103C5800E0E700256562DDE730B590F820C004682C
:103C6800A4680CF1FF3C5FFA8CFCBCF1010F6BD827
:103C780014F0E05F62D0C4F3016CBCF1020F05D907
:103C8800436A43F400034362012062E0012404FA1A
:103C98000CF41C608B68002B3DD10D68CB68046860
:103CA80043EA45550CF118031B01E55003680C69FC
:103CB8000CF1180E03EB0E135C600B7D012B35D055
:103CC800D17993791B0443EA0163517943EA0123CB
:103CD80014790168234301EB0C11C1F88C31D178B8
:103CE80093781B0443EA0163517843EA012311786E
:103CF80002680B4302EB0C12C2F8883102680CF11F
:103D0800180C4FEA0C1C52F80C3043F0010342F82F
:103D18000C3000201DE04C6843EAC403CC68234300
:103D28000CF11804240105682B51BFE7036803EB65
:103D38000E13596841F480715960C1E7436A43F42E
:103D480000134362012004E0436A43F48023436282
:103D5800012030BD90F820C00CF1FF3C5FFA8CFCCC
:103D6800BCF1010F00F29B8010B451B90468E468FB
:103D780014F0030F10D1436A43F400134362012087
:103D88007BE00468246914F0030F05D1436A43F407
:103D980000134362012070E001F11B042401D0F8F4
:103DA80000C05CF8044004F004049460002C66D160
:103DB80001F11B042401D0F800C05CF80440640D34
:103DC8001460046801F11B0C4FEA0C1C54F80C40F9
:103DD80004F00204D46004686444646804F00F04C6
:103DE8001461046864446468C4F307249461046833
:103DF80064446468240C5461026802EB0112D2F82E
:103E0800B8211A70026802EB0112D2F8B821C2F385
:103E180007225A70026802EB0112D2F8B821C2F3E5
:103E280007429A70026802EB0112D2F8B821120E0A
:103E3800DA70026802EB0112D2F8BC211A7102682A
:103E480002EB0112D2F8BC21C2F307225A710268B0
:103E580002EB0112D2F8BC21C2F307429A71026840
:103E680002EB0112D2F8BC21120EDA7189B902688C
:103E7800D36843F02003D360002010BC704701F1E1
:103E88001B042401D0F800C05CF80440E408546026
:103E980097E70268136943F020031361ECE7436A6C
:103EA80043F4802343620120704790F82030013B9F
:103EB800DBB2012B05D9436A43F480234362012016
:103EC8007047026853691943516100207047704771
:103ED8007047704770477047704770477047704722
:103EE800704770472DE9F84F054603685C69D3F8B9
:103EF80004809F68D3F80CB0D3F810A0D3F81890BA
:103F080014F001063BD017F0010616D001229A6082
:103F180017F0020F08D117F0040F0CD117F008069C
:103F280006D04FF4805608E0FFF7D1FF002604E0E2
:103F3800FFF7D0FF01E04FF4006617F4807F0DD043
:103F48002B684FF480729A6017F4007F40F08680E7
:103F580017F4806F00F0868046F4005617F4803F0F
:103F68000DD02B684FF480329A6017F4003F40F070
:103F7800838017F4802F00F0838046F4004614F005
:103F8800080F07D01BF0100F04D046F400762B68FA
:103F98001022DA6014F0040F02D01BF0080F79D158
:103FA80014F0020F04D02B68DB6813F0030F78D1EC
:103FB80014F0400F07D01AF0100F04D046F48066B2
:103FC8002B6810221A6114F0200F02D01AF0080F83
:103FD8006BD114F0100F04D02B681B6913F0030F7A
:103FE8006AD114F4003F02D018F0100F68D114F40D
:103FF800803F02D018F0080F69D114F4004F7AD02E
:1040080018F0040F74D014F4807F04D019F0010F55
:1040180001D046F0010614F4007F04D019F0020F15
:1040280001D046F0020614F4806F04D019F0040F92
:1040380001D046F0040614F4006F59D019F0700945
:1040480056D0B9F1400F65D058D8B9F1200F5ED0DD
:10405800B9F1300F42D146F0200644E02846FFF778
:1040680037FF7BE717F4006F02D046F4804675E708
:104078002846FFF730FF71E72846FFF72AFF7EE75B
:1040880017F4002F02D046F4803678E72846FFF769
:1040980023FF74E72B680822DA602846FFF71DFF24
:1040A8007EE72846FEF71AF982E72B6808221A618C
:1040B8002846FFF713FF8CE72846FEF799F990E7A3
:1040C8002B6810225A602846FFF709FF8FE72B68F4
:1040D80008225A602846FFF703FF8EE7B9F1100F50
:1040E80001D146F008062A68936923F070039361AA
:1040F8002B6804225A609EB9BDE8F88FB9F1500FB9
:104108000BD0B9F1600FEED146F48076EBE746F0BC
:104118001006E8E746F04006E5E746F08006E2E7E5
:104128006B6A1E436E622846FFF7DBFEE4E7000079
:10413800074AD36823F4E0631B041B0C000200F455
:10414800E060034343F0BF6343F40033D360704738
:1041580000ED00E000B5194BDB68C3F30223C3F19F
:10416800070CBCF1040F28BF4FF0040C03F1040E38
:10417800BEF1060F18D9033B4FF0FF3E0EFA0CFCB8
:1041880021EA0C0199400EFA03F322EA03031943CA
:1041980000280BDB0901C9B200F1604000F561405D
:1041A80080F800135DF804FB0023E5E700F00F003A
:1041B8000901C9B2024B1954F4E700BF00ED00E051
:1041C80014ED00E0002807DB00F01F02400901237E
:1041D8009340024A42F82030704700BF00E100E0F7
:1041E8000138B0F1807F0BD24FF0E0235861054AC7
:1041F800F02182F823100020986107221A61704785
:104208000120704700ED00E030B405682C6824F404
:1042180080242C60046863608368402B05D00368A1
:1042280099600368DA6030BC704703689A60036875
:10423800D960F8E710B40368D9B210390B4AA2FB69
:10424800014212090A4CA25CC2655F2908D923F40D
:104258007F7323F0030304338365806D10BC7047BC
:1042680023F47F7323F003038365F6E7ABAAAAAAB6
:1042780048790008836A826992B9012B0AD0022B17
:1042880002D00BB100207047C36A13F0807F28D199
:1042980000207047C36AB3F1C07F24D00020704764
:1042A800B2F5005F09D0022B25D9032B25D1C36AAB
:1042B80013F0807F23D100207047032B03D8DFE859
:1042C80003F01404140A00207047C36A13F0807FB7
:1042D8000DD100207047C36AB3F1C07F09D0002018
:1042E8007047012070470120704701207047012066
:1042F8007047012070470120704700207047012057
:104308007047000070B50446FFF71AFB002C5BD01D
:104318000546022384F83530002384F834302268B7
:10432800136823F00103136023681A6812F0010F61
:104338000AD0FFF705FB431B052BF5D9202363653E
:10434800032084F8350070BD1A6820481040616861
:10435800A2680A43E1680A4321690A4361690A437A
:10436800A1690A43E1690A43216A0A430243616A6F
:1043780004291ED01A602668756925F00705636A46
:104388001D43042B07D1A36A1D43E36A1BB12046D2
:10439800FFF770FF90B975612046FFF74BFFE26D9C
:1043A8003F239340836000206065012384F8353003
:1043B800C9E7E16A206B01430A43DBE740236365F1
:1043C800012084F83500BEE70120BCE73F8010F0EB
:1043D80038B50446856D90F8340001282BD00120AB
:1043E80084F8340094F83500C0B2012804D00023C2
:1043F80084F83430022038BD022084F835000020CB
:1044080060652046FFF700FFE26D3F239340AB60F5
:104418002268136843F016031360236C23B12268E3
:10442800136843F0080313602268136843F001031C
:1044380013600020DFE70220DDE770B50446866DD3
:10444800FFF77EFA94F83530DBB2022B06D08023D2
:104458006365002384F83430012070BD0546226866
:10446800136823F0160313602268536923F080034E
:104478005361236CE3B12268136823F008031360C7
:104488002268136823F00103136023681B6813F084
:10449800010F11D0FFF754FA431B052BF5D9202340
:1044A8006365032084F83500002384F83430D4E7AA
:1044B800A36C002BDFD1E3E7E26D3F239340B360A9
:1044C800012384F83530002084F83400C5E790F8DB
:1044D8003530DBB2022B03D08023436501207047BF
:1044E800052380F835300268136823F00103136050
:1044F80000207047F0B583B0044600230193724B47
:104508001D68724BA3FB0535AD0A876D3E68C26D09
:1045180008239340334210D003681A6812F0040F3E
:104528000BD01A6822F004021A60C26D0823934067
:10453800BB60436D43F001034365E26D0123934083
:10454800334209D02268526912F0800F04D0BB6050
:10455800636D43F002036365E26D042393403342C5
:1045680009D02268126812F0020F04D0BB60636D94
:1045780043F004036365E26D10239340334224D073
:104588002268126812F0080F1FD0BB6023681A68EF
:1045980012F4802F0DD01B6813F4002F04D1236C64
:1045A8009BB12046984710E0A36C73B1204698470A
:1045B8000BE01A6812F4807F03D11A6822F008020F
:1045C8001A60236C0BB120469847E26D2023934074
:1045D800334255D02268126812F0100F50D0BB60D9
:1045E80094F83530DBB2052B0ED023681A6812F424
:1045F800802F33D01B6813F4002F2AD1636C002B53
:104608003ED0204698473BE02268136823F0160303
:1046180013602268536923F080035361236CA3B1AC
:104628002268136823F008031360E26D3F23934068
:10463800BB60012384F83530002384F83430236DBF
:10464800002B3FD0204698473CE0A36C002BE7D1D5
:10465800EBE7E36BA3B12046984711E01A6812F420
:10466800807F09D11A6822F010021A60012384F8A9
:104678003530002384F83430E36B0BB1204698477B
:10468800636DFBB1636D13F0010F17D0052384F838
:1046980035302268136823F001031360019B01334E
:1046A8000193AB4204D823681B6813F0010FF5D1BE
:1046B800012384F83530002384F83430E36C0BB1DF
:1046C8002046984703B0F0BD78000020B5814E1B06
:1046D80000230F2B00F2E48070B582B060E085689B
:1046E8005E000324B44025EA0405CC68B4402C439A
:1046F8008460456825EA02054C68C4F300129A40B4
:104708002A4342605AE0DC08083450F8246003F079
:10471800070295000F22AA4026EA020E0A69AA405B
:1047280042EA0E0240F824205CE0072200E0002262
:1047380002FA0EF22A4302345A4D45F824205A4A06
:1047480094686FEA0C0224EA0C054E6816F4801F80
:1047580001D04CEA0405544CA560E46802EA04055B
:104768004E6816F4001F01D04CEA04054E4CE56073
:10477800646802EA04054E6816F4003F01D04CEA6A
:104788000405494C6560246822404D6815F4803F53
:1047980001D04CEA0402444C226001330F2B7DD82F
:1047A80001229A400C6804EA020C32EA0404F4D1AB
:1047B8004C6804F00304013C012C90D94A6802F0CB
:1047C8000302032A09D0C4685D000322AA4024EA30
:1047D80002048A68AA402243C2604A6802F00302BF
:1047E800022A90D004684FEA430E032202FA0EF21E
:1047F80024EA02044A6802F0030202FA0EF2224393
:1048080002604A6812F4403FC7D000220192274A4A
:10481800546C44F480445464526C02F48042019213
:10482800019A9C08A51C1F4A52F8255003F0030260
:104838004FEA820E0F2202FA0EF225EA02051C4AFE
:1048480090423FF474AF02F5806290421AD002F5AC
:104858008062904218D002F58062904216D002F52C
:104868008062904214D002F58062904212D002F524
:104878008062904210D002F5806290423FF455AFBA
:10488800082255E7012253E7022251E703224FE7A6
:1048980004224DE705224BE7062249E702B070BD26
:1048A800704700BF00380140003C0140003802401A
:1048B800000002400AB181617047090481617047B4
:1048C800436901EA030221EA030141EA02418161E5
:1048D800704740B338B5044603684CF6CC421A60BA
:1048E800036845F255521A60036842685A600368C3
:1048F80082689A60FFF724F805462368DA6812F0A0
:10490800030F0BD0FFF71CF8401B3128F5D923689B
:10491800DB6813F0030FF0D0032003E04AF6AA2265
:104928001A60002038BD0120704703684AF6AA22A1
:104938001A60002070470000002800F0E08170B580
:1049480082B00446036813F0010F3BD09F4B9B686D
:1049580003F00C03042B2CD09C4B9B6803F00C0336
:10496800082B21D06368B3F5803F4FD0B3F5A02F53
:1049780052D0964B1A6822F480321A601A6822F4D0
:1049880080221A606368002B50D0FEF7D9FF0546D5
:104998008E4B1B6813F4003F14D1FEF7D1FF401B68
:1049A8006428F5D90320B1E1884B5B6813F4800FC4
:1049B800D8D0864B1B6813F4003F03D06368002BE4
:1049C80000F09F81236813F0020F54D07F4B9B683F
:1049D80013F00C0F3ED07D4B9B6803F00C03082BA3
:1049E80033D0E368002B68D0794B01221A60FEF7B8
:1049F800A7FF0546754B1B6813F0020F54D1FEF74D
:104A08009FFF401B0228F5D903207FE16F4A1368F6
:104A180043F480331360B5E76C4B1A6842F4802284
:104A28001A601A6842F480321A60ABE7FEF788FF12
:104A38000546664B1B6813F4003FC3D0FEF780FFA2
:104A4800401B6428F5D9032060E1604B5B6813F4D0
:104A5800800FC6D15D4B1B6813F0020F03D0E368CB
:104A6800012B40F05081594A136823F0F80321695B
:104A780043EAC1031360236813F0080F42D0636947
:104A88006BB3534B0122C3F8802EFEF759FF05463E
:104A98004E4B5B6F13F0020F34D1FEF751FF401BF2
:104AA8000228F5D9032031E1484A136823F0F803B6
:104AB800216943EAC1031360DDE7454B00221A6010
:104AC800FEF73EFF0546414B1B6813F0020FD2D09C
:104AD800FEF736FF401B0228F5D9032016E13C4BB0
:104AE8000022C3F8802EFEF72BFF0546374B5B6F7D
:104AF80013F0020F06D0FEF723FF401B0228F5D95A
:104B0800032003E1236813F0040F77D02F4B1B6CAD
:104B180013F0805F33D1002301932C4B1A6C42F0C1
:104B280080521A641B6C03F080530193019B01258A
:104B3800284B1B6813F4807F23D0A368012B34D043
:104B4800052B38D0214B1A6F22F001021A671A6F11
:104B580022F004021A67A368002B3DD0FEF7F0FE8E
:104B680006461A4B1B6F13F0020F46D1FEF7E8FEFC
:104B7800801B41F288339842F3D90320C6E0002510
:104B8800D6E7144A136843F480731360FEF7D8FE1F
:104B98000646104B1B6813F4807FCED1FEF7D0FE7B
:104BA800801B0228F5D90320B0E0084A136F43F0B0
:104BB80001031367CFE7054B1A6F42F004021A6727
:104BC8001A6F42F001021A67C5E700BF00380240B9
:104BD8000000474200700040FEF7B2FE0646524B06
:104BE8001B6F13F0020F08D0FEF7AAFE801B41F2DC
:104BF80088339842F3D9032088E0EDB9A369002BE4
:104C080000F08380484A926802F00C02082A51D0CA
:104C1800022B17D0454B00221A66FEF791FE044678
:104C2800414B1B6813F0007F42D0FEF789FE001B42
:104C38000228F5D9032069E03B4A136C23F080531E
:104C48001364DBE7394B00221A66FEF779FE054646
:104C5800354B1B6813F0007F06D0FEF771FE401B32
:104C68000228F5D9032051E0E369226A1343626AF6
:104C780043EA8213A26A5208013A43EA0243E26A0B
:104C880043EA0263284A5360284B01221A66FEF75A
:104C980057FE0446244B1B6813F0007F06D1FEF72D
:104CA8004FFE001B0228F5D903202FE000202DE03D
:104CB80000202BE0012B2BD01B4B5B6803F48001F9
:104CC800E269914226D103F03F02216A8A4223D148
:104CD800616A47F6C0721A40B2EB811F1ED103F415
:104CE8004031A26A5208013AB1EB024F18D103F0E1
:104CF8007063E26AB3EB026F14D1002006E0012072
:104D08007047012002E0012000E0002002B070BDE1
:104D18000120FBE70120F9E70120F7E70120F5E78B
:104D28000120F3E70120F1E7003802400000474284
:104D380008B5254B9B6803F00C03042B3FD0082BC8
:104D48003FD1214B5A6802F03F025B6813F4800F91
:104D580012D01D4B5968C1F388111C480023A1FBD0
:104D68000001FBF7BBFF184B5B68C3F3014301333A
:104D78005B00B0FBF3F025E0134B5968C1F3881CC6
:104D88004FEA4C11B1EB0C006EEB0E0E4FEA8E138E
:104D980043EA90638101091A63EB0E03DB0043EADF
:104DA8005173C90011EB0C0C43F100039902002365
:104DB8004FEA8C2041EA9C51FBF790FFD3E7034868
:104DC80000E0034808BD00BF00380240001BB700E0
:104DD8000024F400002800F09B8070B50D460446BE
:104DE8004F4B1B6803F007038B4208D2CBB24C4AE7
:104DF8001370136803F007038B4240F08B8023681D
:104E080013F0020F17D013F0040F04D0454A93682B
:104E180043F4E0539360236813F0080F04D0414A29
:104E2800936843F4604393603E4A936823F0F00329
:104E3800A1680B439360236813F0010F32D06368B5
:104E4800012B21D09A1E012A25D9364A126812F060
:104E5800020F61D033498A6822F0030213438B6042
:104E6800FEF76EFD06462F4B9B6803F00C03626845
:104E7800B3EB820F16D0FEF763FD801B41F2883337
:104E88009842F0D9032042E0264A126812F4003F03
:104E9800E0D101203BE0234A126812F0007FD9D10B
:104EA800012034E01E4B1B6803F00703AB4207D90F
:104EB800EAB21B4B1A701B6803F00703AB422DD1F3
:104EC800236813F0040F06D0164A936823F4E053BE
:104ED800E1680B439360236813F0080F07D0114A69
:104EE800936823F46043216943EAC1039360FFF7A1
:104EF8001FFF0C4B9B68C3F303130B4AD35CD840CA
:104F08000A4B18600A4B1868FEF7CEFC002070BDEB
:104F1800012070470120FAE70120F8E70120F6E7B1
:104F2800003C024000380240307900087800002038
:104F380080000020014B1868704700BF78000020EF
:104F480008B5FFF7F7FF044B9B68C3F38223034AB6
:104F5800D35CD84008BD00BF003802404079000843
:104F680008B5FFF7E7FF044B9B68C3F34233034AD6
:104F7800D35CD84008BD00BF003802404079000823
:104F88002DE9F04782B00546884617461E46FEF7CB
:104F9800D7FC0A9B1B1A03EB0609FEF7D1FC8246D5
:104FA8002B4B1B68C3F3CB3309FB03F301932B682B
:104FB8009C6838EA04030CBF4FF0010C4FF0000C5A
:104FC800BC4540D0B6F1FF3FF1D0FEF7B9FCA0EBED
:104FD8000A0048450AD2B9F1000F07D0019A02B178
:104FE8004A46019B013B01939146E0E72A685368D2
:104FF80023F0E00353606B68B3F5827F0BD0AB6A94
:10500800B3F5005F14D0012385F85130002385F8EB
:105018005030032018E0AB68B3F5004F02D0B3F569
:10502800806FECD12A68136823F040031360E6E729
:105038002A68136823F4005313602A68136843F43A
:1050480000531360DFE7002002B0BDE8F08700BF1F
:105058007800002010B584B00446164B1868164B2B
:10506800A3FB0030400D4FF47A7303FB00F003906C
:105078006368B3F5827F0BD0039BBBB1039B013BF5
:10508800039323689B6813F0800FF5D100200EE08E
:1050980000920B46002280212046FFF771FF30B1B5
:1050A800636D43F020036365032000E0002004B033
:1050B80010BD00BF78000020819F5E1600285AD0DE
:1050C80010B50446436A33B94368B3F5827F05D007
:1050D8000023C36102E00023036143610023A3624C
:1050E80094F85130002B40D0022384F851302268C4
:1050F800136823F040031360636803F48273A268A3
:1051080002F404421343E26802F400621343226982
:1051180002F002021343626902F001021343A2691A
:1051280002F400721343E26902F038021343226A60
:1051380002F080021343A26A02F40052216813436A
:105148000B60638B03F00403626A02F010022168AB
:1051580013434B602268D36923F40063D3610020B2
:105168006065012384F8513010BD84F85030204622
:10517800FDF78AFFB8E7012070472DE9F04383B0B7
:105188001F460A9D90F85030012B00F0108104460C
:1051980088469146012380F85030FEF7D1FB064639
:1051A80094F85130DBB26268012B0AD0B2F5827FE5
:1051B80040F0E380A268002A40F0E980042B40F028
:1051C800E880B8F1000F00F0E680B9F1000F00F0B8
:1051D800E480002F00F0E38094F85130DBB2042B18
:1051E80002D0052384F8513000236365C4F8389051
:1051F800E787A787C4F83080E786A78623646364B7
:1052080023681A6812F0400F03D11A6842F040026E
:105218001A60E368B3F5006F11D063680BB1012F12
:105228000BD1226B236812781A73236B0133236323
:10523800E38E9BB2013B9BB2E38601276BE0636878
:105248000BB1012F0BD1226B23681288DA60236B14
:1052580002332363E38E9BB2013B9BB2E3860127B3
:105268001CE023689A6812F0010F0ED0E28F92B208
:105278005AB1DA68A36B1A80A36B0233A363E38F76
:105288009BB2013B9BB2E3870127FEF759FB801BCA
:10529800A84203D3B5F1FF3F40F08380E38E9BB271
:1052A8001BB9E38F9BB2002B53D023689A6812F086
:1052B800020FD6D0E28E92B2002AD2D0002FD0D0E0
:1052C800226B1288DA60236B02332363E38E9BB26E
:1052D800013B9BB2E3860027C3E723689A6812F074
:1052E800010F0ED0E28F92B25AB1DA68A36B1A702E
:1052F800A36B0133A363E38F9BB2013B9BB2E387AC
:105308000127FEF71DFB831BAB4202D3B5F1FF3F1C
:1053180049D1002D49D0E38E9BB213B9E38F9BB2DC
:10532800BBB123689A6812F0020FD6D0E28E92B20F
:10533800002AD2D0002FD0D0226B12781A73236B98
:1053480001332363E38E9BB2013B9BB2E3860027C4
:10535800C3E7324629462046FFF77CFE48B9A368D2
:1053680063B901932368DA6801929B680193019BF2
:1053780004E020236365012000E00220012384F873
:105388005130002384F8503003B0BDE8F083022088
:10539800F4E70220F2E70120F0E70120EEE7012020
:1053A800ECE70320EAE70320E8E70320E6E702202A
:1053B800EAE7000030B4036A23F001030362036ADA
:1053C8004268846924F073040D682C4323F0020CAE
:1053D8008B6843EA0C03104DA84203D005F580659D
:1053E800A84205D123F00803CD682B4323F004031A
:1053F800094DA84203D005F58065A84205D122F4DD
:1054080040724D692A438D692A43426084614A6823
:105418004263036230BC70470000014030B4036A45
:1054280023F480730362036A4268C46924F0730C2E
:105438000C6844EA0C0523F400738C6843EA0423DF
:10544800114CA04203D004F58064A04206D123F495
:105458000063CC6843EA042323F480630A4CA04227
:1054680003D004F58064A04207D122F440524C696D
:1054780042EA04128C6942EA04124260C5614A6831
:10548800C263036230BC70470000014030B4036A55
:1054980023F480530362036A4468C26922F4E64233
:1054A8000D6842EA052223F400538D6843EA053368
:1054B800094DA84203D005F58065A84204D124F41B
:1054C80080444D6944EA85144460C2614A680264B4
:1054D800036230BC704700BF0000014010B4036A8B
:1054E800046A24F001040462846924F0F00C4CEA94
:1054F800021223F00A030B438261036210BC704757
:1055080010B4046A24F0100404628469036A24F461
:10551800704C4CEA023223F0A00343EA0113826183
:10552800036210BC7047836823F070030B4343F099
:10553800070383607047000090F83D30DBB2012B11
:1055480037D1022380F83D300268D36843F0010365
:10555800D3600368194A934220D0B3F1804F1DD01D
:10556800A2F57C42934219D002F58062934215D08D
:1055780002F58062934211D002F5784293420DD031
:1055880002F57052934209D0A2F59432934205D0A5
:105598001A6842F001021A60002070479A6802F007
:1055A8000702062A07D01A6842F001021A60002092
:1055B8007047012070470020704700BF000001407D
:1055C80070477047704770477047704710B504467A
:1055D80003681A6912F0020F11D0DA6812F0020F8C
:1055E8000DD06FF002021A610123037703689B69EB
:1055F80013F0030F70D0FFF7E6FF0023237723682B
:105608001A6912F0040F12D0DA6812F0040F0ED0E3
:105618006FF004021A610223237723689B6913F44D
:10562800407F5FD02046FFF7CEFF00232377236813
:105638001A6912F0080F12D0DA6812F0080F0ED0AB
:105648006FF008021A61042323772368DB6913F0DB
:10565800030F4ED02046FFF7B6FF002323772368B9
:105668001A6912F0100F12D0DA6812F0100F0ED06B
:105678006FF010021A61082323772368DB6913F49B
:10568800407F3DD02046FFF79EFF00232377236805
:105698001A6912F0010F03D0DA6812F0010F36D13F
:1056A80023681A6912F0800F03D0DA6812F0800FAD
:1056B80034D123681A6912F0400F03D0DA6812F067
:1056C800400F32D123681A6912F0200F03D0DA682C
:1056D80012F0200F30D110BDFFF774FF2046FFF7FE
:1056E80073FF8AE72046FFF76DFF2046FFF76CFF40
:1056F8009BE72046FFF766FF2046FFF765FFACE70C
:105708002046FFF75FFF2046FFF75EFFBDE76FF01B
:1057180001021A612046FFF754FFC1E76FF08002CB
:105728001A61204600F0D5FAC3E76FF040021A610B
:105738002046FFF74AFFC5E76FF020021A612046AE
:1057480000F0C6FAC7E700000368304A904212D05A
:10575800B0F1804F0FD0A2F57C4290420BD002F5F9
:105768008062904207D002F58062904203D002F531
:105778007842904203D123F070034A681343234AC6
:1057880090422AD0B0F1804F27D0A2F57C429042B7
:1057980023D002F5806290421FD002F580629042C9
:1057A8001BD002F57842904217D002F57052904211
:1057B80013D002F5806290420FD002F580629042C9
:1057C8000BD0A2F59832904207D002F58062904241
:1057D80003D002F58062904203D123F44073CA6873
:1057E800134323F080034A69134303608B68C36241
:1057F8000B688362054B984203D003F58063984297
:1058080001D10B6903630123436170470000014024
:1058180040B310B5044690F83D30F3B1022384F844
:105828003D30214651F8040BFFF78EFF012384F821
:10583800463084F83E3084F83F3084F8403084F8AD
:10584800413084F8423084F8433084F8443084F896
:10585800453084F83D30002010BD80F83C30FDF71D
:10586800B1FDDBE70120704740B310B5044690F85E
:105878003D30F3B1022384F83D30214651F8040B42
:10588800FFF762FF012384F8463084F83E3084F83D
:105898003F3084F8403084F8413084F8423084F84E
:1058A800433084F8443084F8453084F83D30002093
:1058B80010BD80F83C30FFF783FEDBE7012070471E
:1058C80030B4036A23F010030362036A44688269F0
:1058D80022F4E6420D6842EA052223F020038D688F
:1058E80043EA0513114DA84203D005F58065A84287
:1058F80006D123F08003CD6843EA051323F0400363
:105908000A4DA84203D005F58065A84207D124F4C2
:1059180040644D6944EA85048D6944EA850444601D
:1059280082614A688263036230BC704700000140AC
:1059380038B590F83C30012B66D004460D4601235B
:1059480080F83C300C2A5AD8DFE802F00759595938
:105958001B5959593059595944000068FFF72AFD15
:105968002268936943F0080393612268936923F0DE
:10597800040393612268936929690B4393610020AA
:105988003EE00068FFF79CFF2268936943F40063D8
:1059980093612268936923F4806393612268936911
:1059A800296943EA01239361002029E00068FFF791
:1059B80035FD2268D36943F00803D3612268D369AF
:1059C80023F00403D3612268D36929690B43D361A7
:1059D800002015E00068FFF759FD2268D36943F4F9
:1059E8000063D3612268D36923F48063D36122689A
:1059F800D369296943EA0123D361002000E001202B
:105A0800002384F83C3038BD0220FCE710B48468D9
:105A180024F47F4C42EA03220A4342EA0C028260E1
:105A280010BC704790F83C30012B78D010B5044674
:105A3800012380F83C30022380F83D3002689368E7
:105A480023F47F4323F0770393600B68602B4CD0DB
:105A580029D8402B54D00CD9502B22D1CA68496878
:105A68000068FFF73BFD50212068FFF75CFD002030
:105A780005E0202B0DD009D9302B0AD001200123B5
:105A880084F83D30002384F83C3010BD0BB1102B56
:105A980005D119462068FFF746FD0020EFE70120F1
:105AA800EDE70120EBE7B3F5805F34D0B3F5005F95
:105AB8000CD1CB684A6889680068FFF7A7FF22689D
:105AC800936843F4804393600020D8E7702B24D177
